:03000000020006F5
:10005F00750800E4F50EF50F751001751102751294
:0D006F0003751304F514F515F516020003D2
:030003000203C134
:10007C00AE82AF837C007D00C3EC9EED9F5016C218
:10008C008C758CFC758A18C28DD28C308DFD0CBC95
:10009C0000E60D80E32253890F438901C28C758CD5
:1000AC0000758A00D28C22750800E58C24FC400B6C
:1000BC007403B58C4074BF258A503AE58C24FC50EF
:1000CC00067E007F00800AE58A24BFFDFE3395E0A2
:1000DC00FF8E8AAE8C7F007535038F368E828F83B0
:1000EC001205D6AE828E08E50875F003A4FFE58CE8
:1000FC00FEC39FF58C2275C80075C90275CBFF75C0
:10010C00CABED2CA22C29FD29E438920758DF5D217
:10011C008ED29922AF8210990280FB8F9922AD82E8
:10012C00AE83AFF07C00C3EC95095029EC2DF9E4BB
:10013C003EFA8F0389828A838BF01205BAF582C04E
:10014C0007C006C005C004120120D004D005D0069B
:10015C00D0070C80D175820A020120AD82AE83AF2C
:10016C00F0E53512052974012DFAE43EFB8F048A63
:10017C00828B838CF0748012052974022DFDE43E71
:10018C00FE8D828E838FF0E402052985820B858398
:10019C000C85F00D7C00E50A247F504F850B828581
:1001AC000C83850DF01205BAFB8BF005F0E5908001
:1001BC0002C313D5F0FB30E0197401250BF9E435BB
:1001CC000CFAAB0D89828A838BF07480120529029C
:1001DC0002B77401250BF9E4350CFAAB0D89828A50
:1001EC00838BF074C01205290202B7850B82850C33
:1001FC0083850DF01205BAFB8BF005F0E5908002BB
:10020C00C313D5F0FB20E0597401250BF9E4350C30
:10021C00FAAB0D89828A838BF01205BAF8B8801C70
:10022C0089828A838BF074D4120529850B82850C04
:10023C0083850DF012038BAC820202B7E8243F5089
:10024C006AE8C3950AF889828A838BF0120529B86B
:10025C00C000505789828A838BF074C012052980A4
:10026C004A7C007401250BF9E4350CFAAB0D89823C
:10027C008A838BF01205BAF8B8C00D89828A838BF9
:10028C00F074941205298023E8247F501EE8C3954E
:10029C000AF889828A838BF0120529B88000500BEA
:1002AC0089828A838BF074801205297402250BF9DC
:1002BC00E4350CFAAB0D89828A838BF01205BAF8FF
:1002CC0003035401FF600F740248FF89828A838BF9
:1002DC00F0120529800D5300FD89828A838BF0E88A
:1002EC00120529850B82850C83850DF0C004120341
:1002FC008BE582D00460247402250BFDE4350CFEE2
:10030C00AF0D8D828E838FF01205BAFB4303048DE3
:10031C00828E838FF0EB12052980227402250BFD4F
:10032C00E4350CFEAF0D8D828E838FF01205BAFB77
:10033C005303FB8D828E838FF0EB120529740225FB
:10034C000BFDE4350CFEAF0D8D828E838FF0120504
:10035C00BAFB035401FA6017EB03035401FA700F54
:10036C0074014BFA8D828E838FF0120529800D5308
:10037C0003FE8D828E838FF0EB1205298C8222ADC9
:10038C0082AE83AFF00DBD00010E8D828E838FF097
:10039C001205BA23235401F58222AD82AE83AFF04D
:1003AC0074022DFDE43EFE8D828E838FF01205BA11
:1003BC005401F582221200A21201021201117F00D7
:1003CC00BF0A005023EF75F003A42417FE7D007CB8
:1003DC004074015F2402F5358E828D838CF0C0074A
:1003EC00120167D0070F80D81200B3AE087F00ACA3
:1003FC000EAD0FEE2CFCEF3DFD8C0E8D0F43B004BB
:10040C007F00BF05005061EF2410F987068EF005C0
:10041C00F07401800225E0D5F0FBF452A07E00BE02
:10042C000200502B8F05ED2DFD8E04EC2D75F00385
:10043C00A42417FD7C007B4085080A8D828C838B5D
:10044C00F0C007C006120197D006D0070E80D0EF7F
:10045C002410F987068EF005F07401800225E0D592
:10046C00F0FBFE42A00F809A7F007E00BE0A005077
:10047C005EEE75F003A42417FD7C007B408D828C0E
:10048C00838BF0C007C00612038BE582D006D00721
:10049C00603853B0FBBE0700401EBF0702800ABF86
:1004AC000802800ABF0928800A75157E80217515FF
:1004BC003C801C75155580178E058DF005F0740168
:1004CC00800225E0D5F0FBFD42150E8E07809DAE17
:1004DC000EAF0FC3EE943CEF940050030203F4757F
:1004EC00353C7536008E828F83120544AE82AF8305
:1004FC008E0E8F0FE516600FE515700BF58212014D
:10050C00207516000203F4E51570030203F485153B
:0D051C00821201207515007516010203F40E
:06003500E478FFF6D8FD9F
:100013007900E94400601B7A00900612780175A00C
:1000230000E493F2A308B8000205A0D9F4DAF2754C
:02003300A0FF2C
:1005290020F71130F6138883A88220F509F6A883ED
:100539007583002280FEF280F5F022E535453660AC
:10054900467A01E53525E0F535E536334012F536CD
:10055900E5829535E583953640030A80E6C3E5369D
:1005690013F536E53513F535C3E5829535F5F0E52F
:100579008395364005F58385F082C3E53613F53654
:08058900E53513F535DAE12236
:10003B007800E84400600A790175A000E4F309D860
:10004B00FC7800E84400600C7900900001E4F0A318
:04005B00D8FCD9FAFA
:100591007A10E4FBFCE58225E0F582E58333F583FF
:1005A100EB33FBEC33FCEB9535F5F0EC953640067F
:0905B100FCABF0438201DADD220B
:0D00060075813612060EE5826003020003CC
:1005BA0020F71430F6148883A88220F507E6A8836A
:1005CA0075830022E280F7E49322E022C2D5E58314
:1005DA0030E70DD2D5E4C39582F582E49583F5839D
:1005EA00E53630E70DB2D5E4C39535F535E49536F1
:1005FA00F53612059130D50BE4C39582F582E49560
:08060A0083F5832275820022B2
:00000001FF
