:020000040800F2
:1000000000500020052A0008C5010008C7010008AB
:10001000C9010008CB010008CD0100080000000064
:10002000000000000000000000000000CF010008F8
:10003000D101000800000000D3010008D50100082C
:100040004D2A00084D2A00084D2A00084D2A0008B4
:100050004D2A00084D2A00084D2A00084D2A0008A4
:100060004D2A00084D2A00084D2A00084D2A000894
:100070004D2A00084D2A00084D2A00084D2A000884
:100080004D2A00084D2A00084D2A00084D2A000874
:100090004D2A00084D2A00084D2A00084D2A000864
:1000A0004D2A00084D2A00084D2A00084D2A000854
:1000B0004D2A00084D2A0008CD1800084D2A0008D6
:1000C0004D2A00084D2A00084D2A00084D2A000834
:1000D0004D2A00084D2A00084D2A00084D2A000824
:1000E0004D2A00084D2A00084D2A00080000000093
:1000F0000000000000000000000000000000000000
:0C01000000000000000000005FF808F1A3
:10010C0010B5054C237833B9044B13B10448AFF345
:10011C0000800123237010BD0400002000000000AB
:10012C00502A000808B5034B1BB103490348AFF331
:10013C00008008BD0000000008000020502A0008C4
:10014C0070B500260C4D0D4C641BA410A64209D1B1
:10015C0002F078FC00260A4D0A4C641BA410A6423F
:10016C0005D170BD55F8043B98470136EEE755F8BC
:10017C00043B98470136F2E7E8680008E868000895
:10018C00E8680008EC68000803460244934200D17A
:10019C00704703F8011BF9E700B585B005496846BF
:1001AC0002F020FC6846009B98476846019B9847E4
:1001BC00FBE700BF682A00087047FEE7FEE7FEE792
:1001CC00FEE77047704770477047000082B000230D
:1001DC00019300932C4A136843F4803313602A4B29
:1001EC001B6803F400330093019B01330193009BC4
:1001FC001BB9019BB3F5A06FF1D1234B1B6813F412
:10020C00003F06D001230093009B012B04D002B0C9
:10021C00704700230093F7E71C4B1A6842F010025A
:10022C001A601A6822F007021A601A6842F0020279
:10023C001A60A3F580535A685A605A685A605A6813
:10024C0042F480625A605A6822F47C125A605A68EE
:10025C0042F4E8125A601A6842F080721A600A4B33
:10026C001B6813F0007FFAD0074B5A6822F0030288
:10027C005A605A6842F002025A60034B5B6803F002
:10028C000C03082BF9D1C2E70010024000200240F9
:10029C0008B5FFF79BFF08BD08B5104B1A6842F074
:1002AC0001021A6059680E4A0A405A601A6822F014
:1002BC00847222F480321A601A6822F480221A6046
:1002CC005A6822F4FE025A604FF41F029A60FFF73C
:1002DC00DFFF044B4FF000629A6008BD0010024033
:1002EC000000FFF800ED00E0C378FBB1154BDA68B5
:1002FC00D243C2F30222C2F1040C0F2323FA02F2FE
:10030C00417801FA0CF1837813400B431B010278FE
:10031C00DBB20D490A4482F80033037803F01F0066
:10032C005B090122824041F823207047037803F0D7
:10033C001F015B0901228A402033034941F8232025
:10034C00704700BF00ED00E000E100E010B442682F
:10035C0022F4702222F480720B6891F804C043EAF4
:10036C000C231343436083680A4A1A40CB688C6899
:10037C00234391F805C043EA4C0313438360C36ADB
:10038C0023F470030A7C013AD2B243EA0253C362EB
:10039C0010BC7047FDF7F1FF21B1836843F00103F6
:1003AC0083607047836823F001038360704721B139
:1003BC00836843F4807383607047836823F480738D
:1003CC0083607047836843F00803836070478368D9
:1003DC0013F0080F01D0012070470020704783688C
:1003EC0043F0040383607047836813F0040F01D05B
:1003FC00012070470020704721B1836843F4A003AB
:10040C0083607047836823F4A0038360704710B542
:10041C0009291DD9C468A1F10A0C0CEB4C0C4FF046
:10042C00070E0EFA0CFE24EA0E0403FA0CF3234317
:10043C00C360062A1BD8436B013A02EB82021F24CD
:10044C00944023EA040301FA02F21A43426310BDFA
:10045C00046901EB410E4FF0070C0CFA0EFC24EA78
:10046C000C0C03FA0EF34CEA03030361E1E70C2ACC
:10047C000CD8036B073A02EB82021F24944023EA48
:10048C00040301FA02F21A430263E0E7C36A0D3A6D
:10049C0002EB82021F24944023EA040301FA02F2C5
:1004AC001A43C262D3E710B4026822F4FF4222F06E
:1004BC0070028B680C6A23430C6923434C692343F9
:1004CC008C692343CC6923434C6A23438C6A2343B2
:1004DC0013430360CB6843600B6883604B68C36055
:1004EC0010BC704721B1036843F0010303607047EF
:1004FC00036823F001031B041B0C0360704730B529
:10050C00CB7803F00F02964613F0100F03D091F83E
:10051C0002E04EEA020E0B7803B30468002301E0FC
:10052C0042610133072B18D801229A40B1F800C060
:10053C0032EA0C05F5D14FEA830C0F2505FA0CF5C0
:10054C0024EA05040EFA0CFC4CEA0404CD78282DA0
:10055C00E6D0482DE5D10261E3E704600B88FF2B60
:10056C0025D94468002303E0CD78482D1CD00133F5
:10057C00072B1BD803F1080C012202FA0CF2B1F87C
:10058C0000C032EA0C05F2D14FEA830C0F2505FAB4
:10059C000CF524EA05040EFA0CFC4CEA0404CD78A4
:1005AC00282DE1D14261DFE70261E0E7446030BD14
:1005BC008368194201D00120704700207047016107
:1005CC007047416170470AB10161704741617047E2
:1005DC0021B1054A5369184350617047024A536967
:1005EC0023EA0000506170470010024021B1054A17
:1005FC009369184390617047024A936923EA00009B
:10060C00906170470010024021B1054AD36918432C
:10061C00D0617047024AD36923EA0000D061704769
:10062C00001002402DE9F041038803F441520F8879
:10063C00B1F802808E88CD880C89B1F80AE0B1F847
:10064C000CC0CB8947EA08073E4335432C434EEA9E
:10065C00040E4CEA0E0C43EA0C0313430380838B09
:10066C009BB223F400639BB283830B8A0382BDE8A5
:10067C00F08129B103889BB243F04003038070479B
:10068C0003889BB223F040039BB2038070478181A7
:10069C007047000003889BB2214A904212D002F5A9
:1006AC00006290420ED0B0F1804F0BD0A2F5983280
:1006BC00904207D002F58062904203D002F580622E
:1006CC00904203D123F070034A881343154A904299
:1006DC0008D002F58062904204D023F440739BB2A0
:1006EC00CA88134303808B8883850B8803850C4B46
:1006FC0098420FD003F5006398420BD003F540638A
:10070C00984207D003F58063984203D003F58063C9
:10071C00984201D10B7A038601238382704700BF74
:10072C00002C01400010004010B4038C9BB223F04D
:10073C0001039BB20384038C9BB2B0F804C01FFA74
:10074C008CFC028B92B222F073020C88224323F0B1
:10075C0002030C8923434C882343154CA0420FD031
:10076C0004F50064A0420BD004F54064A04207D00D
:10077C0004F58064A04203D004F58064A0420FD13C
:10078C0023F008034C89234323F004038C88234370
:10079C002CF4407C8C894CEA040CCC8944EA0C0C7B
:1007AC00A0F804C00283CA888286038410BC7047F8
:1007BC00002C014029B103889BB243F00103038054
:1007CC00704703889BB223F001039BB203807047F0
:1007DC0022B183899BB21943818170478389C943B4
:1007EC0089B2194081817047818470478185704737
:1007FC00808C80B27047C94389B20182704782B045
:10080C00ADF80000ADF80210009B01930020BDF87C
:10081C00043063F30F00BDF8063063F31F4002B0E1
:10082C00704738B504460D46C16000210846FFF7F5
:10083C00E6FF206085B128786988C90091FBF0F14A
:10084C0009B2FFF7DCFF6060002323822375962337
:10085C0063820123237238BD00210846FFF7CFFFC6
:10086C006060F1E7C268AAB1038A194489B20182B7
:10087C00438A99420ED3B1FBF3FC03FB1C1101829A
:10088C00037D0133DBB20375928893FBF2F102FB1B
:10089C00113303757047C168A1B110B584B08B6872
:1008AC00027D53F822300A78047A029401240194D0
:1008BC0049880091B0F90210B0F9000001F0C2FEB5
:1008CC0004B010BD70472DE9F04383B00190009146
:1008DC001546BDF90460B04613E00FFA88F7BDF970
:1008EC0006402A462146384601F0AAFCA4B2BDF8BF
:1008FC00021021442A4609B2384601F0A1FC08F145
:10090C000108BDF90070BB194345E6DABDF9069044
:10091C004C460FE00FFA84F82A464146304601F067
:10092C008FFCB0B2BBB218442A46414600B201F06B
:10093C0087FC0134BDF902304B44A342EADA03B020
:10094C00BDE8F0832DE9F04182B00190009117468B
:10095C00BDF9068045460BE03A4629B220B201F0BB
:10096C006FFC0134BDF900303344A342F4DC013593
:10097C00BDF902304344AB4203DDBDF9046034469B
:10098C00F0E702B0BDE8F081884201D90020704741
:10099C0038B505460C1A01F011F900FB04F10448B6
:1009AC0080FB0130C917C1EB6011681880B238BDEB
:1009BC001F85EB5108B500210846FFF720FF034BBC
:1009CC00D86100F017F800F0BDFB08BD2000002036
:1009DC0008B501F0EDF8064B188000F003FE00207E
:1009EC0001F0A8FB00F08EFE01F0C8FB08BD00BFB3
:1009FC002000002000B583B00190BDF90610BDF9B0
:100A0C000400FFF7FCFE054B43F8040BC822002141
:100A1C001846FFF7B9FB03B05DF804FB400000205B
:100A2C0070B584B0B6215C20FFF7E9FE0146039057
:100A3C0005221D4B1868FFF746FF08210846FFF7F3
:100A4C00DEFE0290002528E00134092C24DC05EBA5
:100A5C008503154A02EB430323441B7913F0010F62
:100A6C00F2D01646108804EBC403184402305188A7
:100A7C0005EBC5031944023109B200B2FFF7BFFE02
:100A8C00019005EB850306EB4306264432795208A8
:100A9C000299FFF757FFD7E70135132D01DC00242E
:100AAC00D3E704B070BD00BF4000002008B5C822D9
:100ABC0000210248FFF768FB08BD00BF440000207E
:100ACC0000B583B00190BDF904C01FFA8CF3092B5B
:100ADC0015D8BDF906309AB2132A10D8094A03EB7F
:100AEC00830002EB4000604490F804E04EF0010EED
:100AFC0080F804E05FFA8EF261F34702027103B0F2
:100B0C005DF804FB4000002082B00190BDF90400A8
:100B1C0083B2092B1BD8BDF906309AB2132A16D80A
:100B2C000C4A03EB830C4FEA4C011144014491F83D
:100B3C0004C06FF3000C81F804C003EB830359006D
:100B4C00531803445FFA8CF26FF347021A7102B028
:100B5C00704700BF4000002082B00190BDF9042016
:100B6C0093B2092B0FD8BDF9063099B213290CD8C2
:100B7C0003EB83035900064B0B441344187900F024
:100B8C00010002B070470020FBE70020F9E700BF2E
:100B9C004000002082B00190BDF904309BB2092BBB
:100BAC0007D8BDF906309BB2132B04D8012002B034
:100BBC0070470020FBE70020F9E7000082B00190AD
:100BCC00BDF9042093B2092B0ED8BDF9063099B2A9
:100BDC0013290BD803EB83035900054B0B44134427
:100BEC001879400802B070470020FBE70020F9E7B5
:100BFC0040000020114B98831884B0F5706F0BD017
:100C0C00B0F5704F10D00D4B93F82620032161F3F3
:100C1C00C50283F82620704793F82620042161F33F
:100C2C00C50283F826207047044B93F82620022136
:100C3C0061F3C50283F82620704700BF1001002025
:100C4C0010B51D4B93F826206FF3861283F82620DF
:100C5C000022DA801A8893F82610C1F30111521A77
:100C6C009A809B8BB3F5706F21D0134C00210846F2
:100C7C00FFF7C5FDE06094F82600C0F3C200002128
:100C8C000138FFF7BCFD206194F82600C0F3C200C8
:100C9C0001380146FFF7B3FD606194F82610C1F3EB
:100CAC00C20101390020FFF7AAFDA06110BD024B63
:100CBC004FF6FF72DA80D8E71001002010B5002043
:100CCC0001F00CFA1D4C1E4904F13000FFF7A9FD90
:100CDC000A211420FFF793FD20631A4904F1480000
:100CEC00FFF79FFDE18E1E3109B21420FFF787FD3F
:100CFC00A064154904F16000FFF793FDB4F84A10A5
:100D0C00B4F94E3019440A3109B21420FFF777FDBB
:100D1C0020660E4904F17800FFF783FDA36CA367EE
:100D2C000B4904F19000FFF77CFD0023A4F89030F0
:100D3C00B4F87A300A33A4F8923010BD10010020B8
:100D4C00744B0008A8460008DC410008C8320008B3
:100D5C00EC31000808B505210020FFF715FEC0B2E4
:100D6C0004280AD8DFE800F0030B05070400032071
:100D7C0008BD0520FCE70720FAE70020F8E706206D
:100D8C00F6E7000008B507210020FFF7FDFDC0B213
:100D9C00062852D8DFE800F0040F1A25303B460035
:100DAC002A4B93F82620042161F3020283F82620B3
:100DBC004FF4706008BD254B93F82620032161F396
:100DCC00020283F826204FF41C40F3E71F4B93F8E4
:100DDC002620032161F3020283F826204FF4705081
:100DEC00E8E71A4B93F82620022161F3020283F8FC
:100DFC0026204FF47040DDE7144B93F82620032196
:100E0C0061F3020283F826204FF4F040D2E70F4B37
:100E1C0093F82620032161F3020283F826204FF475
:100E2C006840C7E7094B93F82620032161F30202BF
:100E3C0083F826204FF44C40BCE7044B93F8262053
:100E4C006FF3020283F826200020B3E71001002084
:100E5C0070B582B0174BB3F9066000251AE0013467
:100E6C000135144AB2F9043092F82620C2F3C202BA
:100E7C001344A3420DDD0F4B9B8BAB4013F4004F7F
:100E8C00EDD031B220B2FFF7BAFC0190FFF73CFE77
:100E9C00E5E70136074AB2F9063092F82620C2F38C
:100EAC00C2021344B34203DD024BB3F90440D8E74A
:100EBC0002B070BD100100202DE9F04182B0FFF7A7
:100ECC00C7FF214BB3F9066000252CE00134013536
:100EDC001D4AB2F9043092F82620C2F3C202134420
:100EEC00A3421FDD184BDB8BAB4013F4004FEDD04E
:100EFC0027B20FFA86F841463846FFF780FC00907F
:100F0C00FFF748FE034648B141463846FFF777FCE9
:100F1C000190FFF721FE0028D8D00023184602B01C
:100F2C00BDE8F0810136084AB2F9063092F8262065
:100F3C00C2F3C2021344B34203DD034BB3F90440C2
:100F4C00C6E70123EAE700BF1001002010B582B00C
:100F5C0000F02EFE1F4B1A88104480B218805028C7
:100F6C001AD9503818801C4A1378013B137000248E
:100F7C0009E0194B197820B2FFF741FC01900521CB
:100F8C00FFF79EFD0134092CF3DD134B1B782BB1BD
:100F9C00032000F0B9FDC8B102B010BDFFF786FD0B
:100FAC000E4B0022DA850B490A800B49142008707D
:100FBC0093F8261062F3C71183F82610C9B262F3B6
:100FCC00861183F8261083F8A820E1E7032000F0AF
:100FDC0015FDE1E70C0100200000002010010020AD
:100FEC002DE9F04186B04FF0000826E03A4B93F81B
:100FFC0027206FF3410283F82720374B93F82730D3
:10100C0013F0020F17D0B8F1000F2FD0474657E05E
:10101C00002120B2FFF7F3FB0190FFF775FD0134BF
:10102C00092CF5DD2C4AD38D0A33D385022000F030
:10103C006BFD002848D008F10108B8F1130F47DC0C
:10104C00254A92F8273043F0020382F82730002417
:10105C00092CD2DC0FFA88F120B2FFF7D0FB0090FC
:10106C00FFF77AFD0028C1D00134F1E74446D7E7F9
:10107C0039B23046FFF7C3FB0590FFF745FD01354C
:10108C00092D1CDC2EB27C1E24B221463046FFF703
:10109C00B6FB0290FFF760FD0028E9D039B230466C
:1010AC00FFF7ADFB039021463046FFF7A8FB0490F9
:1010BC00FFF784FD01460398FFF702FDDFE7013FD0
:1010CC00002FAFDD0025DBE7022000F097FCB2E734
:1010DC0006B0BDE8F08100BF100100202DE9F04101
:1010EC0084B080460E46019200273D4623E0013431
:1010FC000135A6421EDD08FA05F313F4004FF6D0B5
:10110C00BDF8040004EBC4031844BDF8061007EB4B
:10111C00C703194409B200B2FFF771FB0290082112
:10112C000846FFF76CFB0146039004220298FFF778
:10113C0009FCDCE70137BE4201DD0024D9E704B02D
:10114C00BDE8F08138B5002409E0A31C214D05EB66
:10115C00830500210846FFF752FB68600134032C1D
:10116C00F3DD1C4C0025A583E5832584A58494F828
:10117C00263065F3020384F82630DBB265F3861360
:10118C0084F82630DBB265F3C71384F8263094F864
:10119C00273043F0010384F82730DBB265F34103B9
:1011AC0084F82730258565854FF49673A3852946E9
:1011BC000520FFF724FB2060606094F8263065F36F
:1011CC00C50384F82630E58584F8A850FFF776FD32
:1011DC0038BD00BF1001002010B5104B93F826301D
:1011EC0013F0380F14D1FFF7CDFD0C4B9884FFF79B
:1011FC0001FDFFF7AFFD094C94F8223060F30303B7
:10120C0084F82230FFF7BEFDA084FFF719FD10BD56
:10121C00024B988CFFF7EEFCEBE700BF10010020AF
:10122C0010B5264B93F8A8304BB9244B93F8A93042
:10123C0013F0020F1ED100F05FFD002837D100F033
:10124C00B7FC01461D4C04F19000FFF70BFB00F0BE
:10125C007FFD94F8A93060F3000384F8A93000F006
:10126C0084FD94F8A93060F3410384F8A93094F814
:10127C00A80010BD00F062FD80B1104BB3F97A20CC
:10128C00B3F94A309A420ED00C4B9A6C9A670B4ABF
:10129C00B2F87A300A33A2F89230CCE700F042FD73
:1012AC000028C8D0E9E7054B1A6E9A67EFE7034BA5
:1012BC00012283F8A820FFF78FFFC0E71001002060
:1012CC00F0B583B0464BB3F91A6076B14FF0FF3EE0
:1012DC00434BB3F918505DB14FF0FF34404BB3F9A9
:1012EC0014309D4206D000215CE04FF0010EEFE778
:1012FC000124F3E7002125E04FF4004242FA01F704
:10130C00DFF8DCC0BCF81E2022EA0702ACF81E2075
:10131C0023440131B3F1FF3F13D0984211D0304A2E
:10132C00128C06FB0037BA4012F4004FE4D04FF495
:10133C0000420A412A4FB7F81EC042EA0C02FA8357
:10134C00E6E77644B6F1FF3F38D0254B93F82600FC
:10135C00C0F3C200B04231D02B46DBE74FF4004261
:10136C0042FA01FC1E4FFA8B22EA0C02FA837344F8
:10137C000131B3F1FF3F14D0984212D0184A128CAD
:10138C0003FB005C02FA0CF212F4004FE6D04FF4AF
:10139C0000420A41124FB7F81EC042EA0C02FA830F
:1013AC00E5E72544B5F1FF3F08D00D4B93F8260037
:1013BC00C0F3C200A84201D03346DAE7FFF77CFD48
:1013CC0058B1074BDA8B9A83DA6801929969D96024
:1013DC0059699961196959611A6103B0F0BD00BF6F
:1013EC00100100202DE9F04186B0019002907C4B59
:1013FC0093F8263013F0400F16D0794B93F8263023
:10140C0013F0400F00F0AB80754BB3F9063033B9D5
:10141C00734A92F8263043F0800382F82630704BE2
:10142C00B3F906600025C9E0FFF712FDBDF90A30DB
:10143C00002B49D06A4AB2F906601E44002532E0FE
:10144C0001340135664AB2F9043092F82620C2F311
:10145C00C2021344A34225DD614B9B8BAB4013F4BA
:10146C00004FEDD031B220B2FFF7C9F90390FFF76E
:10147C0073FB08B9132EE3DD00210846FFF7BFF913
:10148C000290574B93F8262042F0400283F8262016
:10149C00B3F90660BDF90A20164493F82630C3F35D
:1014AC00C2031E4401364E4AB2F90630BDF90A1089
:1014BC000B4492F82620C2F3C2021344B34203DD5C
:1014CC00474BB3F90440BDE7BDF90830002B94D06D
:1014DC00434BB3F90670BDF90A80474400252BE055
:1014EC00013401353E4AB2F90430334492F82620D7
:1014FC00C2F3C2021344A3421DDD394B9B8BAB409C
:10150C0013F4004FECD039B220B2FFF778F9049005
:10151C00FFF722FB18B9002C01DB092CE0DD0023BE
:10152C00ADF808302E4BB3F90670474493F82630CB
:10153C00C3F3C2031F440137294AB2F906304344AE
:10154C0092F82620C2F3C2021344BB427FF755AF78
:10155C00234BB3F90440BDF908603444C2E7204C76
:10156C00A088BDF808301844E188BDF80A30194449
:10157C0009B200B2FFF743F9606050E7013401355E
:10158C00174AB2F9043092F82620C2F3C20213446F
:10159C00A34212DD124B9B8BAB4013F4004FEDD0EA
:1015AC0031B220B2FFF72BF905900D4B93F82210B6
:1015BC0001F00F01FFF784FAE0E70136084AB2F9AF
:1015CC00063092F82620C2F3C2021344B34203DD64
:1015DC00034BB3F90440D3E706B0BDE8F08100BF7C
:1015EC001001002030B583B0FFF71AFE012801D09E
:1015FC0003B030BD00210846FFF701F9019000F05F
:10160C00D7FA3E4D2B8D1844288500F0D1FA6C8DFD
:10161C000444A4B26C852A8DAB8D9A4204D300216C
:10162C0029850122ADF806209C4222D200F07AFBDB
:10163C0000283BD100F06AFB10B900F05DFB30B123
:10164C0000F0B6FA2D4A538D03EB400353852B4B18
:10165C0093F8262093F92630002B31DB12F0400F43
:10166C0031D0FFF7BDFCFFF7B7FD0198FFF7BAFECD
:10167C00BEE7224B00225A8500F048FB20B14FF602
:10168C00FF73ADF80430D1E700F036FB18B101233D
:10169C00ADF80430CAE71A4BA3FB04239B0B4EF6A0
:1016AC00602202FB1344154B5C85BFE700F080FA07
:1016BC0000EB4000114A138D03EB40001085B9E795
:1016CC00FFF744FC94E700F039FB78B10B4B93F82F
:1016DC00273013F0010FC8D0084B93F827206FF375
:1016EC00000283F82720FFF7EBFDBEE7034A92F8D0
:1016FC00273043F0010382F82730B6E710010020B1
:10170C0073B2E74530B587B0354B93F8A8301BB1B1
:10171C00012B17D007B030BD314C04F13000FFF76E
:10172C00BAF804F14800FFF7B6F804F16000FFF7CF
:10173C00B2F804F17800FFF7AEF804F19000FFF76F
:10174C00AAF8E7E7FFF76CF9264B00930423264A27
:10175C000621662001F048F81E216420FFF74FF89F
:10176C0002901E212820FFF74AF80146039005221B
:10177C000298FFF7A8F81A4B9C8CB4F5706F1FD029
:10178C00174B93F8265005F0070524216C20FFF722
:10179C0036F80246059029462046FFF79FFC114B70
:1017AC0000930423114A7821632001F01DF80723CC
:1017BC000B4AB2F92E208C21632001F023F8A9E703
:1017CC0093F8265005F0070522216720FFF717F83C
:1017DC000246049029462046FFF780FCDFE700BF55
:1017EC0010010020C0320008702A0008782A000876
:1017FC0070B58CB001210420FEF7F8FE0124ADF881
:10180C002C4018238DF82F3003238DF82E300BA984
:10181C002948FEF774FE21462046FEF7F5FE00250A
:10182C00ADF82650ADF82250ADF824504726ADF84F
:10183C00206008A94FF08040FEF72CFF6023ADF824
:10184C001030ADF812400823ADF81630ADF8185032
:10185C0004A94FF08040FEF767FF21464FF080400F
:10186C00FEF7A8FF21460420FEF7CEFEADF80A5085
:10187C00ADF806504FF47A73ADF80830ADF804604B
:10188C000E4E01A93046FEF705FF1E238DF80030E1
:10189C008DF801508DF802408DF803406846FEF734
:1018AC0023FD2A4621463046FEF792FF214630465C
:1018BC00FEF780FF0CB070BD00080140000800402E
:1018CC0010B501213248FEF796FF324B1B7D002BE1
:1018DC0040D0304B5B7D002B3CD02E4B5B882BB12A
:1018EC00013B9BB22B4A5380002B34D0294A1388DE
:1018FC0001339BB213801169928831F812108B421C
:10190C0028D3244BDB889A421CD2224B9B6833F899
:10191C001210F9B1204B93FBF1F189B24FF08040DA
:10192C00FEF764FF1B4BDA68998832F811205A8055
:10193C0001214FF08040FEF73DFF01221146144873
:10194C00FEF746FF134A938801339BB29380D288EB
:10195C00934206D810BD00214FF08040FEF746FFA1
:10196C00C4E70C4B00241C751C805C809C804FF6DB
:10197C00FF72DA809C60DC601C6121464FF0804075
:10198C00FEF718FF224601210148FEF721FFE1E78F
:10199C0000080040BC01002040420F0000B9704715
:1019AC0010B50C46074991FBF0F189B24FF080401D
:1019BC00FEF71CFF044B5C80012211460348FEF726
:1019CC0007FF10BD40420F00BC0100200008004082
:1019DC0008B5084B00221A751A805A809A804FF667
:1019EC00FF71D9809A60DA601A6101210248FEF712
:1019FC00EFFE08BDBC0100200008004008B5274BD5
:101A0C0018750138032845D8DFE800F0021A28368B
:101A1C00224B00221A805A809A800122DA80204AB6
:101A2C009A60204ADA60204A1A6101214FF0804006
:101A3C00FEF7C0FE012211461C48FEF7C9FE08BD88
:101A4C00164B00221A805A809A802422DA80184A77
:101A5C009A60184ADA60184A1A61E6E70F4B0022BE
:101A6C001A805A809A801822DA80144A9A60144A92
:101A7C00DA60144A1A61D8E7084B00221A805A809F
:101A8C009A801522DA80104A9A60104ADA60104A5D
:101A9C001A61CAE7FFF79CFFC7E700BFBC01002033
:101AAC001856000870550008C85600080008004079
:101ABC00A0550008F854000848560008E8550008DE
:101ACC0040550008945600081C5600087455000830
:101ADC00CC56000810B5FFF78BFE0A4B00221A807B
:101AEC005A80DA809A801A619A60DA601A75012439
:101AFC005C7521462046FFF751FF2046FFF77EFF1D
:101B0C0010BD00BFBC010020034B1B7D834214BFE2
:101B1C0000200120704700BFBC01002010B584B02C
:101B2C0001214FF40060FEF761FD0023ADF80A308F
:101B3C00ADF806304FF6FF73ADF8083040F2CF2306
:101B4C00ADF80430054C01A92046FEF7A3FD012198
:101B5C002046FEF72FFE04B010BD00BF002C014044
:101B6C0008B5FFF7DBFF08BD10B50E48FEF740FEC9
:101B7C000D4B00221A800D49A1FB0021490964225A
:101B8C0002FB110189B25980632800D810BD0446AC
:101B9C000448FEF729FE0548A0FB04346409024BF7
:101BAC001C80F3E7002C0140D40100201F85EB5171
:101BBC00014B1888704700BFD4010020014B588896
:101BCC00704700BFD401002070B592B001210420F1
:101BDC00FEF70CFD00248DF847400623ADF8443089
:101BEC0003238DF8463011A92F48FEF788FC0121FC
:101BFC004FF40070FEF7FAFC01258DF835500F9468
:101C0C004FF460230E930C9402268DF840608DF8EF
:101C1C003450264C0CA92046FEF798FB04232A4688
:101C2C0029462046FEF7F3FB042332463146204674
:101C3C00FEF7EDFB29462046FEF7AEFB2046FEF7ED
:101C4C00C1FB1A48FEF7C3FB0028FAD11748FEF770
:101C5C00C6FB1648FEF7C8FB0028FAD10121134831
:101C6C00FEF7CAFB01210846FEF7B2FC02230493DF
:101C7C00002303930B930E4A02924FF48062089256
:101C8C0080220692202209920A4A01924FF4807215
:101C9C00079205934FF480530A9301A90648FEF767
:101CAC0002FC12B070BD00BF0008014000240140CE
:101CBC00D80100204C2401400800024008B5012145
:101CCC000348FEF774FB01210248FEF70BFC08BD2C
:101CDC00002401400800024008B5064B00221A807F
:101CEC005A804FF47A729A80FFF76EFFFFF7E6FF87
:101CFC0008BD00BFD8010020034B18889B88984270
:101D0C002CBF002001207047D8010020044B1888FC
:101D1C009B8803F5FA639842D4BF002001207047DA
:101D2C00D8010020044B58889B8803F5FA6398422D
:101D3C00D4BF002001207047D8010020034B5888E5
:101D4C009B8898422CBF002001207047D8010020AE
:101D5C0008B5FFF7DBFF20B9FFF7CEFF18B901205C
:101D6C0000E0002008BD0020FCE708B5FFF7E6FF07
:101D7C0020B9FFF7D7FF18B9012000E0002008BDFB
:101D8C000020FCE708B501460148FEF780FC08BDC1
:101D9C000038004070B586B001210820FEF726FC03
:101DAC0001210420FEF722FC01214FF48040FEF7B4
:101DBC002BFC10268DF817604FF48063ADF81430AF
:101DCC0003248DF81640274D05A92846FEF797FBEE
:101DDC008DF817604FF40063ADF814308DF8164091
:101DEC0005A92846FEF78BFB18268DF817604FF4D3
:101DFC000053ADF814308DF8164005F5806505A933
:101E0C002846FEF77CFB8DF817604FF40043ADF8C5
:101E1C0014308DF8164005A92846FEF770FB0023F8
:101E2C00ADF80C30ADF808300222ADF80620ADF854
:101E3C0004304FF44042ADF80020ADF80E304FF4B2
:101E4C008273ADF802304FF40073ADF80A30064CD3
:101E5C0069462046FEF7E6FB01212046FEF709FC09
:101E6C0006B070BD000801400038004008B54FF4C2
:101E7C0080610248FEF7A3FB08BD00BF00080140CB
:101E8C0008B54FF480610248FEF79BFB08BD00BF0C
:101E9C000008014008B54FF400610248FEF791FBC1
:101EAC0008BD00BF0008014008B54FF400610248AE
:101EBC00FEF785FB08BD00BF0008014008B500F027
:101ECC002DFD08BD08B5FFF75DFF08BD10B5044634
:101EDC00FFF7D6FF2046FFF7F5FF10BD10B50446FF
:101EEC00FFF7C4FF2046FFF7EDFF10BDF8B5054620
:101EFC0015F8013B0DE014F8010BFFF7EFFF2A4634
:101F0C00531EDDB2002AF6D117F0800F0DD13346E7
:101F1C0025465E1EF6B293B12C4614F8020BFFF761
:101F2C00D5FF6F7807F07F02EAE714F8010BFF2862
:101F3C0002D0FFF7C3FFEAE74FF4FA70F9E7F8BDF8
:101F4C0010B50446FFF7B0FF3220FFF7B7FFFFF7DD
:101F5C00A1FF3220FFF7B2FFFFF7A6FF3220FFF7F9
:101F6C00ADFF14B12046FFF7C1FF10BD10B50446FC
:101F7C003620FFF7ABFF04F00300194B1870032851
:101F8C000ED8DFE800F0020E1A23C020FFF7A6FFE0
:101F9C00144B1A78144B1A70144B1A78144B1A7081
:101FAC0010BDA020FFF79AFF0E4B1A78104B1A7039
:101FBC000E4B1A780C4B1A70F2E70020FFF78EFFCD
:101FCC000023094A13700A4A1370E9E76020FFF7EF
:101FDC0085FF0023044A1370054A1370E0E700BF25
:101FEC009E280020DE010020E2010020E0010020FC
:101FFC00E301002038B504460D460020FFF7A0FF92
:10200C00F02C14D000230E4A13700E4A13700023C8
:10201C000D4A13700D4A13700D4B1C700D4B1D7037
:10202C000D48FFF763FF0220FFF7A0FF38BDF02D2E
:10203C00E8D1034B00221A70024B50221A70E6E7CB
:10204C00DE010020E0010020E2010020E30100207D
:10205C00E1010020DF010020C4680008F8B51D4C28
:10206C002578284487B21544ADB21B4A1478214414
:10207C008EB21C44A4B2FFF703FF2A20FFF722FF05
:10208C00FFF7F4FE380AFFF71DFFF8B2FFF71AFF4F
:10209C00280AFFF717FFE8B2FFF714FFFFF7F0FE6F
:1020AC002B20FFF70FFFFFF7E1FE300AFFF70AFFC7
:1020BC00F0B2FFF707FF200AFFF704FFE0B2FFF7CB
:1020CC0001FFFFF7DDFE2C20FFF7FCFEFFF7CEFE35
:1020DC00F8BD00BFE2010020E3010020F8B5064680
:1020EC00EF231A4600210846FFF7B8FF00270EE041
:1020FC00094B33F81650280AFFF744FEE8B2FFF7F5
:10210C0041FE0134E4B2EF2CF2D90137FFB2EF2FCC
:10211C0001D80024F7E7F8BD645E000808B5FFF7A6
:10212C0039FEF0210846FFF765FF0020FFF7D6FFC8
:10213C0008BD000070B510F0040100D0FF2110F0B4
:10214C00020600D0FF2610F0010400D0FF24094D38
:10215C0040F6DE422846FEF717F840F6DE423146DE
:10216C00A818FEF711F840F6DE4221460248FEF7A9
:10217C000BF870BDE4010020A01B00202DE9F041FC
:10218C00D423C1221E213220FFF768FF00263546DA
:10219C004CE005F0FB0522E005F0FD052EE005F016
:1021AC00FE05254B33F815804FEA1820FFF7EAFDA2
:1021BC005FFA88F0FFF7E6FD013C64B2002C2DDBE2
:1021CC003346384606EBC60251001C4A0A44D25D1F
:1021DC002146224112F0010FDBD045F0040503F13A
:1021EC00B70202EBC2024FEA420C144A6244125C80
:1021FC000A4112F0010FCFD045F0020503F5B77379
:10220C0003EBC3034FEA430C0C4A6244135C0B41CF
:10221C0013F0010FC3D045F00105C2E70137FFB23F
:10222C00112F01D80724C9E70136F6B2B62E01D812
:10223C000027F5E7BDE8F081645E0008E4010020AA
:10224C000028C0F28A800029C0F287808F2800F312
:10225C008480B62900F38180082A7ED830B50346E5
:10226C00002844DBC3F3C703D0F1000C00F00700D7
:10227C000CF0070C58BFCCF10000C0B212F0040FE8
:10228C0037D0C0F1070C012404FA0CFC334C01EBE1
:10229C00C10504EB4505EC5C44EA0C04EC5412F06B
:1022AC00020F35D001F1B70CC0F1070E012404FA6E
:1022BC000EFE2A4C0CEBCC0504EB4505EC5C44EA19
:1022CC000E04EC5412F0010F35D001F5B771C0F1CA
:1022DC0007004FF0010C0CFA00FC204A01EBC10482
:1022EC0002EB4404E05C40EA0C00E05430BDC31D3A
:1022FC00B8E7C0F1070C012404FA0CFC174C01EBF5
:10230C00C10504EB4505EC5C24EA0C04EC54C6E76F
:10231C0001F1B70CC0F10705012404FA05F50F4CC7
:10232C000CEBCC0E04EB4E0E1EF8034024EA050415
:10233C000EF80340C6E701F5B771C0F107004FF086
:10234C00010C0CFA00FC054A01EBC10402EB44043D
:10235C00E05C20EA0C00E054C8E77047E401002080
:10236C002DE9F04F87B00190059102920393DDF8AF
:10237C0040A09DF84490BAF804300493BAF8068053
:10238C00DAF8003000934FF0000B5D4628E0029A1B
:10239C0031B2BDF90400FFF753FF6D00EDB2013609
:1023AC00B6B20137B84515DD2CB9009B13F8015BAB
:1023BC009AF808400093013CE4B215F0800FE6D087
:1023CC00B9F1000FE9D0039A31B2BDF90400FFF75F
:1023DC0037FFE2E7019B01339BB201930BF1010B39
:1023EC00049B5B4503DD059E00273C46DAE707B0FE
:1023FC00BDE8F08F03FB00F000B203FB01F10028F5
:10240C00C0F21D812DE9F0470CB2002CC0F21581F1
:10241C008F2800F31281B62C00F30F81082A00F2EA
:10242C000C81054600280CDBC5F3C705414200F0C2
:10243C00070001F0070158BF4842C6B24FF0000E2A
:10244C00F7E0C51DF0E701F1070879E004EB0E0792
:10245C00884600291DDB05EBE808D1F1000901F0E5
:10246C00070C09F0070958BFC9F1000CCCF1070C97
:10247C004FF0010909FA0CFCDFF8C49107EBC70A0D
:10248C0009EB4A0A1AF8087027EA0C0C0AF808C07B
:10249C0073E001F10708DEE701F1070876E004EBD1
:1024AC000E07B737884600291DDB05EBE808D1F18C
:1024BC00000901F0070C09F0070958BFC9F1000C1D
:1024CC00CCF1070C4FF0010909FA0CFCDFF8709104
:1024DC0007EBC70A09EB4A0A1AF8087027EA0C0C32
:1024EC000AF808C06FE001F10708DEE705EBE70723
:1024FC00D1F1000801F0070108F0070858BFC8F136
:10250C000001C1F107014FF0010909FA01F94C4929
:10251C000CEBCC0801EB480818F8071041EA09014C
:10252C0008F807100130C0B298427ED2811949B226
:10253C0012F0040F8AD004EB0E078846002982DBC8
:10254C0005EBE808D1F1000901F0070C09F00709C7
:10255C0058BFC9F1000CCCF1070C4FF0010909FA76
:10256C000CFCDFF8DC9007EBC70A09EB4A0A1AF8F7
:10257C00087047EA0C0C0AF808C012F0020F8ED053
:10258C0004EB0E07B7378846002985DB05EBE80816
:10259C00D1F1000901F0070C09F0070958BFC9F186
:1025AC00000CCCF1070C4FF0010909FA0CFCDFF818
:1025BC00909007EBC70A09EB4A0A1AF8087047EA29
:1025CC000C0C0AF808C012F0010F08D004EB0E0C2A
:1025DC000CF5B77C0F46002988DACF1D86E704EB93
:1025EC000E0C0CF5B77C0F4600291CDB05EBE7073E
:1025FC00D1F1000801F0070108F0070858BFC8F135
:10260C000001C1F107014FF0010909FA01F90C4968
:10261C000CEBCC0801EB480818F8071021EA09016B
:10262C0008F807107EE7CF1DE0E70EF1010E5FFA08
:10263C008EFE9E4501D2002076E7BDE8F0877047FC
:10264C00E40100202DE9F04F85B0039089460192FA
:10265C009846BDF838A09DF83C3002939DF840B0E8
:10266C00BBF1010F04D090FBFBF3039391FBFBF93F
:10267C0000273C463E464BE004F0FB042BE004F004
:10268C00FD042EE004F0FE0431E0039BF01822461A
:10269C00494600B2FFF7D4FD013D6DB20136B6B22A
:1026AC00002D33DB019B9E4204D309F101090FFA83
:1026BC0089F9002618F8070007EB0A0318F803201D
:1026CC0007EB4A0318F803302946284110F0010F94
:1026DC00D2D044F004040A4112F0010FCFD044F0E0
:1026EC0002040B4113F0010FCCD044F00104029B07
:1026FC009C42D1D0BBF1010FC7D0039BF0185B46B5
:10270C002246494600B2FFF775FEC5E70137BFB256
:10271C00574501D20725C3E705B0BDE8F08F2DE979
:10272C00F04F85B002900F46904603939DF838B059
:10273C000F9C9DF840A005464FF0000907E0636828
:10274C005B68DB881F44BFB2029D08F1010898F852
:10275C000010002945D00A29F1D0092928D1636835
:10276C005B68DB8805EB8305ADB2EEE7D0F804902F
:10277C00B9F1000F35D0B9F80460B9F80630FA1881
:10278C00EF2A2EDCAA19EF2A02DD1F44BFB2029DEC
:10279C00BAF1000F1AD001230193CDF800905B46DB
:1027AC00039A39462846FFF7DBFD3544ADB2CCE73A
:1027BC00002322689342DBDA626802EBC30052F812
:1027CC0033208A42D2D00133DBB2F2E700230193EB
:1027DC00CDF800905B46039A39462846FFF7C0FDBA
:1027EC00E3E705B0BDE8F08F10B584B00024029487
:1027FC00DDF818C0CDF804C00094FFF790FF04B0CA
:10280C0010BD000030B583B03AB19646002A0EDBFD
:10281C004FF0000C42F2107417E01D4A3024147073
:10282C00002454701B4C0094FFF7DEFF2EE0184A76
:10283C002D241470CEF100020FFA82FE4FF0010C21
:10284C00E8E7154AA2FB0424E408A645F9DB14E0EA
:10285C009EFBF4F23032D2B20D4D05F80C20303A1A
:10286C0002FB14E20FFA82FE0B4AA2FB0424C4F30F
:10287C00CF040CF1010C5FFA8CFC002CE8D1044A5B
:10288C0002F80C40034C0094FFF7AEFF03B030BDD0
:10289C0080280020745E0008CDCCCCCC30B583B041
:1028AC0001211020FDF7A2FE10238DF807304FF404
:1028BC000055ADF8045003238DF80630054C01A9E2
:1028CC002046FDF71CFE29462046FDF778FE03B096
:1028DC0030BD00BF0010014000B585B001210220C1
:1028EC00FDF792FE0023ADF80A30ADF806304FF636
:1028FC00FF73ADF808304723ADF8043001A9034845
:10290C00FDF7C8FE05B05DF804FB00BF00040040F5
:10291C0008B5FFF7C3FFFFF7DFFF08BD10B504468E
:10292C0001210C48FDF746FF09E000210948FDF79D
:10293C005BFF0848FDF75CFFB0F57A7FF9D32346BF
:10294C00013CA4B2002BF0D100210248FDF732FF6C
:10295C0010BD00BF0004004038B504460D46FDF71D
:10296C0027FEB0FA80F2520929462046FDF72BFECD
:10297C0038BD000010B50446FFF7F6F8FFF718F95C
:10298C00A081E38903449BB2E381B3F57A7F02D241
:10299C00FEF71EF810BD4FF400510748FFF7DCFF9F
:1029AC00E289064BA3FB02139B094FF47A7101FBDE
:1029BC001323E381ECE700BF00100140D34D6210FC
:1029CC0008B5FFF7A5FFFFF7CBF8FFF7A7FB002033
:1029DC00FFF784FBFFF77EF8FFF77EF9FDF7EAFFC0
:1029EC0008BD00008160024B0360024B43607047DE
:1029FC00CD290008812900080C480D490D4A0023F7
:102A0C0002E0D458C4500433C4188C42F9D30A4A97
:102A1C000A4C002301E013600432A242FBD3FDF701
:102A2C003BFCFDF78DFBFDF7B7FB7047000000206A
:102A3C0004000020F068000804000020A0280020FA
:102A4C00FEE70000F8B500BFF8BC08BC9E46704716
:0C2A5C00F8B500BFF8BC08BC9E467047EF
:102A68007469656F6E6C79004E65787400000000BB
:102A780053636F7265000000943700080400140067
:102A880008000000A0370008050014000800000036
:102A9800B03700080700140008000000C837000815
:102AA8000A00140008000000E837000809001400B4
:102AB80008000000043800080E0014000800000098
:102AC800303800080E001400080000005C380008C8
:102AD800040014000800000068380008050014000D
:102AE80008000000783800080500140008000000FD
:102AF800883800080700140008000000A038000803
:102B08000C00140008000000C43800080400140079
:102B180008000000D0380008070014000800000072
:102B2800E83800080400140008000000F438000821
:102B380007001400080000000C3900080900140000
:102B480008000000283900080900140008000000E7
:102B58004439000809001400080000006039000822
:102B680009001400080000007C390008090014005E
:102B78000800000098390008090014000800000047
:102B8800B43900080900140008000000D039000812
:102B98000900140008000000EC39000809001400BE
:102BA80008000000083A00080900140008000000A6
:102BB800243A00080400140008000000303A000815
:102BC80004001400080000003C3A00080C0014003F
:102BD80008000000603A00080C001400080000001B
:102BE800843A00080C00140008000000A83A000805
:102BF8000800140008000000C03A00081100140082
:102C080008000000F43A00080B0014000800000057
:102C1800183B00080A00140008000000383B0008B0
:102C28000B001400080000005C3B00080C001400B6
:102C380008000000803B000809001400080000009C
:102C48009C3B00080800140008000000B43B000882
:102C58000C00140008000000D83B00080C00140009
:102C680008000000FC3B00080500140008000000F4
:102C78000C3C00080600140008000000203C000876
:102C88000B00140008000000443C00080800140071
:102C9800080000005C3C00080F0014000800000059
:102CA8008C3C00080D00140008000000B43C00082B
:102CB8000D00140008000000DC3C00080A001400A5
:102CC80008000000FC3C00080D001400080000008B
:102CD800243D00080A00140008000000443D0008D4
:102CE8000900140008000000603D000809001400F5
:102CF800080000007C3D00080C00140008000000DB
:102D0800A03D00080B00140008000000C43D0008A6
:102D18001000140008000000F43D00080A00140028
:102D280008000000143E00080A0014000800000013
:102D3800343E00080A00140008000000543E000851
:102D48000500140008000000643E00080600140096
:102D580008000000783E0008050014000800000084
:102D6800883E00080C00140008000000AC3E000873
:102D78000700140008000000C43E00080500140005
:102D880008000000D43E00080900140008000000F4
:102D9800F03E00080A00140008000000103F000878
:102DA8000800140008000000283F00080A0014006A
:102DB80008000000483F000809001400080000004F
:102DC800643F00080500140008000000743F000874
:102DD8000A00140008000000943F00080A001400CC
:102DE80008000000B43F00080400140008000000B8
:102DF800C03F00080400140008000000CC3F000891
:102E08000A00140008000000EC3F00080400140049
:102E180008000000F83F00080F0014000800000038
:102E2800284000080A001400080000004840000874
:102E38000A00140008000000684000080A00140096
:102E480008000000884000080A001400080000007C
:102E5800A84000080600140008000000BC40000854
:102E68000700140008000000D44000080600140001
:102E780008000000E84000080A00140008000000EC
:102E8800084100080800140008000000204100085C
:102E98000C00140008000000444100080800140059
:102EA800080000005C410008080014000800000049
:102EB8007441000808001400080000008C41000854
:102EC80005001400080000009C41000804001400DC
:102ED80008000000A84100080500140008000000D0
:102EE800B84100080C001400080000002000000091
:102EF800802A0008210000008C2A00082200000017
:102F0800982A000823000000A42A000824000000D2
:102F1800B02A000825000000BC2A0008260000008E
:102F2800C82A000827000000D42A0008280000004A
:102F3800E02A000829000000EC2A00082A00000006
:102F4800F82A00082B000000042B00082C000000C1
:102F5800102B00082D0000001C2B00082E0000007C
:102F6800282B00082F000000342B00083000000038
:102F7800402B0008310000004C2B000832000000F4
:102F8800582B000833000000642B000834000000B0
:102F9800702B0008350000007C2B0008360000006C
:102FA800882B000837000000942B00083800000028
:102FB800A02B000839000000AC2B00083A000000E4
:102FC800B82B00083B000000C42B00083C000000A0
:102FD800D02B00083D000000DC2B00083E0000005C
:102FE800E82B00083F000000F42B00084000000018
:102FF800002C0008410000000C2C000842000000D2
:10300800182C000843000000242C0008440000008D
:10301800302C0008450000003C2C00084600000049
:10302800482C000847000000542C00084800000005
:10303800602C0008490000006C2C00084A000000C1
:10304800782C00084B000000842C00084C0000007D
:10305800902C00084D0000009C2C00084E00000039
:10306800A82C00084F000000B42C000850000000F5
:10307800C02C000851000000CC2C000852000000B1
:10308800D82C000853000000E42C0008540000006D
:10309800F02C000855000000FC2C00085600000029
:1030A800082D000857000000142D000858000000E3
:1030B800202D0008590000002C2D00085A0000009F
:1030C800382D00085B000000442D00085C0000005B
:1030D800502D00085D0000005C2D00085E00000017
:1030E800682D00085F000000742D000860000000D3
:1030F800802D0008610000008C2D0008620000008F
:10310800982D000863000000A42D0008640000004A
:10311800B02D000865000000BC2D00086600000006
:10312800C82D000867000000D42D000868000000C2
:10313800E02D000869000000EC2D00086A0000007E
:10314800F82D00086B000000042E00086C00000039
:10315800102E00086D0000001C2E00086E000000F4
:10316800282E00086F000000342E000870000000B0
:10317800402E0008710000004C2E0008720000006C
:10318800582E000873000000642E00087400000028
:10319800702E0008750000007C2E000876000000E4
:1031A800882E000877000000942E000878000000A0
:1031B800A02E000879000000AC2E00087A0000005C
:1031C800B82E00087B000000C42E00087C00000018
:1031D800D02E00087D000000DC2E00087E000000D4
:1031E800E82E00081000200002000000B832000895
:1031F80000000000000000000000000000000000C7
:1032080000000000000000000000000000000000B6
:1032180030003C003F003F803FE03FF83FFE3FFF6B
:103228003FFF3FFE3FF83FE03F803F003C0030005B
:10323800FFFFFFFFFFFFFFFFFFFFFFFFFFFFFFFE97
:10324800FFFCFFF1FFC7FF1FFC7FF0FFC3FFCFFFAD
:103258000000000000000000000000000000000066
:103268000000000000000000000000000000000056
:103278000000000000000000000000000000000046
:103288000000000000000000000000000000000036
:10329800FFFFFFFFFFFFFFFFFFFFFFFFFFFFFFFF36
:1032A800FFFFFFFFFFFFFFFFFFFFFFFFFFFFFFFF26
:1032B800F8310008583200085F000000F42E0008BA
:1032C8006800930101000000903700087FFFFFFFAE
:1032D800FFFFFFFFFFFFFFFFFEFFFFFFFFFFFFFFF7
:1032E800FFFFFFFFFFFFE0000000000000000000FC
:1032F800000007C0000000000000000000000003FC
:10330800C0000000000000000000000003C0000032
:1033180000000000000000000003C00000000000E2
:1033280000000000000003C00000000000000000D2
:1033380000000003C00000000000000000000000C2
:1033480003C0000000000000000000000003C000EF
:103358000000000000000000000003C000000000A2
:103368000000000000000003C00000000000000092
:103378000000000003C00000000000000000000082
:103388000003C0000000000000000000000003C0AF
:10339800000000000000000000000003C000000062
:1033A800000000000000000003C000000000000052
:1033B800000000000003C000000000000000000042
:1033C800000003C00000000000000000000000032F
:1033D800C0000000000000000000000003C0000062
:1033E80000000000000000000003C0000000000012
:1033F80000000000000003C0000000000000000002
:1034080000000003C00000000000000000000000F1
:1034180003C0000000000000000000000003C0001E
:103428000000000000000000000003C000000000D1
:103438000000000000000003E000000000000000A1
:103448000000000007FFFFFFFFFFFFFFFFFFFFFF78
:10345800FFFF7FFFFFFFFFFFFFFFFFFFFFFFFE7F75
:10346800FFFFFFFFFFFFFFFFFFFFFFFEFFFFFFFF65
:10347800FFFFFFFFFFFFFFFFFFE00000000000006D
:10348800000000000007C00000000000000000006D
:10349800000003C00000000000000000000000035E
:1034A800C0000000000000000000000003C0000091
:1034B80000000000000000000003C0000000000041
:1034C80000000000000003C0000000000000000031
:1034D80000000003C0000000000000000000000021
:1034E80003C0000000000000000000000003C0004E
:1034F8000000000000000000000003C00000000001
:103508000000000000000003C000000000000000F0
:103518000000000003C000000000000000000000E0
:103528000003C0000000000000000000000003C00D
:10353800000000000000000000000003C0000000C0
:10354800000000000000000003C0000000000000B0
:10355800000000000003C0000000000000000000A0
:10356800000003C00000000000000000000000038D
:10357800C0000000000000000000000003C00000C0
:1035880000000000000000000003C0000000000070
:1035980000000000000003C0000000000000000060
:1035A80000000003C0000000000000000000000050
:1035B80003C0000000000000000000000003C0007D
:1035C8000000000000000000000003E00000000010
:1035D8000000000000000007FFFFFFFFFFFFFFFFE4
:1035E800FFFFFFFFFF7FFFFFFFFFFFFFFFFFFFFF63
:1035F800FFFEFFFFFFFFFFFFFFFFFFFFFFFFFFFFD4
:10360800FFFFFFFFFFFFFFFFFFFFFFFFFFFFFFFFC2
:10361800FFFFFFFFFFFFFFFFFFFFFFFFFFFFFFFFB2
:10362800FFFFFFFFFFFFFFFFFFFFFFFFFFFFFFFFA2
:10363800FFFFFFFFFFFFFFFFFFFFFFFFFFFFFFFF92
:10364800FFFFFFFFFFFFFFFFFFFFFFFFFFFFFFFF82
:10365800FFFFFFFFFFFFFFFFFFFFFFFFFFFFFFFF72
:10366800FFFFFFFFFFFFFFFFFFFFFFFFFFFFFFFF62
:10367800FFFFFFFFFFFFFFFFFFFFFFFFFFFFFFFF52
:10368800FFFFFFFFFFFFFFFFFFFFFFFFFFFFFFFF42
:10369800FFFFFFFFFFFFFFFFFFFFFFFFFFFFFFFF32
:1036A800FFFFFFFFFFFFFFFFFFFFFFFFFFFFFFFF22
:1036B800FFFFFFFFFFFFFFFFFFFFFFFFFFFFFFFF12
:1036C800FFFFFFFFFFFFFFFFFFFFFFFFFFFFFFFF02
:1036D800FFFFFFFFFFFFFFFFFFFFFFFFFFFFFFFFF2
:1036E800FFFFFFFFFFFFFFFFFFFFFFFFFFFFFFFFE2
:1036F800FFFFFFFFFFFFFFFFFFFFFFFFFFFFFFFFD2
:10370800FFFFFFFFFFFFFFFFFFFFFFFFFFFFFFFFC1
:10371800FFFFFFFFFFFFFFFFFFFFFFFFFFFFFFFFB1
:10372800FFFFFFFFFFFFFFFFFFFFFFFFFFFFFFFFA1
:10373800FFFFFFFFFFFFFFFFFFFFFFFFFFFFFFFF91
:10374800FFFFFFFFFFFFFFFFFFFFFFFFFFFFFFFF81
:10375800FFFFFFFFFFFFFFFFFFFFFFFFFFFFFFFF71
:10376800FFFFFFFFFFFFFFFFFFFFFFFFFFFFFFFF61
:10377800FFFFFFFFFFFFFFFFFFFFFFFFFFFFFFFF51
:10378800FFFFFFFFFF000000D4320008FFFFFFFF2C
:10379800FFFFFFFFFFFFFFFFFFFFFFFFFFFFF00C33
:1037A800FFFFFCFFFFFFFF00FFFFFFF0FFFFFFFF32
:1037B800FFFFFFFFF0FFFFFFFFFFFFFFFF0000001D
:1037C800FFEFFFFEEFFFFEE9FFFC07FFF2EFFFFE52
:1037D800E9FFFC07FFF2EFFFFEEFFFFEFFFF00002F
:1037E800FFFFFFFC7DFFFB3EFFF7BEFFE0003FF75A
:1037F800DEFFFBCDFFFFE1FFFFFFFF00FFFFFFF84C
:103808007FFFF7BFFFF7BEFFF7B9FFF877FFFFCFDE
:10381800FFFF3FFFFEE1FFF9DEFFF7DEFFFFDEFF00
:10382800FFE1FFFFFFFF0000FFFFFFFFE3FFF8DD01
:10383800FFF33EFFF7BEFFF73EFFF75EFFF8CDFF51
:10384800FFE1FFFFF1FFFFCCFFFE1EFFFFFEFFFFC2
:10385800FFFF0000FFFFFFFFFFFFF0FFFFFFFFFF7D
:10386800FFFFFFFF01FFFCFE7FFBFFBFF7FFDF004D
:10387800F7FFDFFBFFBFFCFE7FFF01FFFFFFFF003D
:10388800FDFFFFFDBFFFFD7FFFF0FFFFFD7FFFFD99
:10389800BFFFFDFFFF000000FFFFFFFFFFFFFFDF8F
:1038A800FFFFDFFFFFDFFFFE03FFFFDFFFFFDFFF9D
:1038B800FFDFFFFFFFFFFFFFFFFFFFFFFFFFFFFF30
:1038C800FF3FFFFCFFFFFFFFFFFFFFFFEFFFFFEFE3
:1038D800FFFFEFFFFFEFFFFFEFFFFFFFFF0000001D
:1038E800FFFFFFFFFCFFFFFCFFFFFFFFFFFF3FFFA6
:1038F800FCFFFFF3FFFFCFFFFF3FFFFCFFFFF3FFDE
:10390800FF000000FFFFFFFE03FFF9FDFFF7FEFFCA
:10391800F7FEFFF7FEFFF9F9FFFC07FFFFFFFF00C7
:10392800FFFFFFFDFFFFFBFFFFFBFFFFF000FFFFB7
:10393800FFFFFFFFFFFFFFFFFFFFFF00FFFFFFFB92
:10394800F8FFF7F6FFF7E6FFF7EEFFF7DEFFFBBE3F
:10395800FFF87EFFFFFFFF00FFFFFFFBFDFFF7BE45
:10396800FFF7BEFFF7BEFFF35DFFF8C3FFFFFFFFE2
:10397800FFFFFF00FFE7FFFFC7FFFF97FFFF77FF8E
:10398800FCF7FFF9F7FFF000FFFFF7FFFFF7FF0075
:10399800FFFFFFFFFFFFF03EFFF7BEFFF7BEFFF799
:1039A800BEFFF7DDFFFFC3FFFFFFFF00FFFFFFFEC6
:1039B80003FFF9DDFFF3BEFFF7BEFFF7BEFFF79D7C
:1039C800FFFFC3FFFFFFFF00FFFFFFF7FFFFF7FF4A
:1039D800FFF7F8FFF7C7FFF63FFFF0FFFFF3FFFF22
:1039E800FFFFFF00FFFFFFF8E3FFF35DFFF7BEFFF8
:1039F800F7BEFFF7BEFFF35DFFF8E3FFFFFFFF0031
:103A0800FFFFFFFC7FFFFBBDFFF7DEFFF7DEFFF7E1
:103A1800DCFFFBB9FFFC07FFFFFFFF00FFFFFFFE16
:103A28007CFFFE7CFFFFFFFFFFFFFFFE7F3FFE7C6A
:103A3800FFFFFFFFFFFFFFFFFFFFFFEFFFFFC7FFD6
:103A4800FFD7FFFFB3FFFF3BFFFF7BFFFE7DFFFFBD
:103A5800FFFFFFFFFFFFFFFFFFFFFFFFFFFFFFB7B6
:103A6800FFFFB7FFFFB7FFFFB7FFFFB7FFFFB7FFC6
:103A7800FFB7FFFFB7FFFFFFFFFFFFFFFFFFFFFFDE
:103A8800FFFFFFFFFFFE7DFFFF7BFFFF3BFFFFB355
:103A9800FFFFD7FFFFC7FFFFEFFFFFFFFFFFFFFF9E
:103AA800FFFFFFFBFFFFF7FFFFF7CCFFF7BCFFF3BC
:103AB8007FFFF8FFFFFFFFFFFFFFFFFF03FFFE7C15
:103AC800FFFDFE7FFBFF7FF383BFF779BFF6FDBFE6
:103AD800F6FDBFF6FBBFF601BFFBFD7FF9FDFFFC5E
:103AE800FBFFFF07FFFFFFFFFFFFFF00FFFCFFFFDC
:103AF800F3FFFFCFFFFE0FFFF8EFFFF7EFFFF8EF41
:103B0800FFFE0FFFFFCFFFFFF3FFFFFCFF000000EA
:103B1800FFFFFFFFFFFFF000FFF7BEFFF7BEFFF755
:103B2800BEFFF31CFFF8C3FFFFFFFFFFFFFF00000E
:103B3800FFFFFFFF07FFFCFBFFFBFDFFFBFEFFF79F
:103B4800FEFFF7FEFFF7FEFFF7FEFFFBFDFFFFFF9F
:103B5800FF000000FFFFFFFFFFFFF000FFF7FEFF81
:103B6800F7FEFFF7FEFFF7FEFFF7FCFFFBFDFFF98F
:103B7800F3FFFE07FFFFFFFFFFFFFFFFFFFFF00060
:103B8800FFF7BEFFF7BEFFF7BEFFF7BEFFF7FEFF6A
:103B9800FFFFFF00FFFFFFFFFFFFF000FFF7BFFF82
:103BA800F7BFFFF7BFFFF7BFFFF7BFFFFFFFFFFF3D
:103BB80007FFFCFBFFFBFDFFF7FEFFF7FEFFF7DE4D
:103BC800FFF7DEFFF7DEFFFBC1FFFFFFFFFFFFFF91
:103BD800FFFFFFFFFFFFF000FFFFBFFFFFBFFFFF7B
:103BE800BFFFFFBFFFFFBFFFFFBFFFF000FFFFFFEB
:103BF800FFFFFFFFFFFFFFF7FEFFF000FFF7FEFFED
:103C0800FFFFFF00FFFEFFFFFEFFFFFCFFF003FFCB
:103C1800FFFFFFFFFFFF0000FFFFFFFFFFFFF000B8
:103C2800FFFFBFFFFF9FFFFE4FFFFCE7FFF9F3FF1A
:103C3800F3F9FFF7FCFFFFFEFF000000FFFFFFFFA7
:103C4800FFFFF000FFFFFEFFFFFEFFFFFEFFFFFE8E
:103C5800FFFFFEFFFFFFFFFFFFFFF000FFF1FFFF89
:103C6800F83FFFFF0FFFFFE1FFFFFCFFFFF1FFFF42
:103C7800CFFFFE3FFFF9FFFFF000FFFFFFFFFFFF51
:103C8800FF000000FFFFFFFFFFFFF000FFF1FFFF55
:103C9800F8FFFFFE3FFFFF1FFFFFC7FFFFF3FFFF18
:103CA800F8FFF000FFFFFFFFFFFFFF00FFFFFFFE31
:103CB80007FFFCF3FFFBFDFFF7FEFFF7FEFFF7FE34
:103CC800FFF7FEFFF7FEFFFBFDFFFDFBFFFE07FF13
:103CD800FFFFFF00FFFFFFFFFFFFF000FFF7DFFF21
:103CE800F7DFFFF7DFFFF7DFFFFBBFFFF87FFFFF1F
:103CF800FFFF0000FFFFFFFE07FFFCF9FFFBFDFFD2
:103D0800F7FEFFF7FEFFF7FE7FF7FE3FF7FEBFFB6C
:103D1800FDDFFDFBDFFE07DFFFFFFF00FFFFFFFF0B
:103D2800FFFFF000FFF7DFFFF7DFFFF7CFFFF3B389
:103D3800FFF878FFFFFEFFFFFFFF0000FFFFFFF81F
:103D48007DFFFB3EFFF7BEFFF7DEFFF7DEFFFBED73
:103D5800FFFFF1FFFFFFFF00FFFFFFF7FFFFF7FF88
:103D6800FFF7FFFFF000FFF7FFFFF7FFFFF7FFFF89
:103D7800F7FFFF00FFFFFFF003FFFFFDFFFFFEFF60
:103D8800FFFEFFFFFEFFFFFEFFFFFEFFFFFDFFF050
:103D980003FFFFFFFFFFFFFFF3FFFFFCFFFFFF3FF6
:103DA800FFFFC7FFFFF9FFFFFEFFFFF9FFFFC7FF98
:103DB800FF3FFFFCFFFFF3FFFF000000F3FFFFFCE6
:103DC8007FFFFF0FFFFFC1FFFFF8FFFFF0FFFF07B7
:103DD800FFFCFFFFF0FFFFFC1FFFFF83FFFFF0FF6B
:103DE800FFF8FFFFC3FFFC3FFFF1FFFFF7FEFFF304
:103DF800FCFFF8F1FFFE67FFFF1FFFFF0FFFFE67E5
:103E0800FFF8F1FFF3FCFFF7FEFF0000F7FFFFF1FB
:103E1800FFFFFC7FFFFF1FFFFFE0FFFF9FFFFF3F4C
:103E2800FFFEFFFFF9FFFFF7FFFF0000FFFEFFF7B0
:103E3800FCFFF7F2FFF7E6FFF7CEFFF73EFFF67E4F
:103E4800FFF4FEFFF3FEFFF7FEFF0000FFFFFFFF9A
:103E5800FFFFF0001FF7FFDFF7FFDF00F3FFFFFCB6
:103E6800FFFFFF1FFFFFE3FFFFFCFFFFFF3F000017
:103E7800F7FFDFF7FFDFF0001FFFFFFFFFFFFF0087
:103E8800FFFFFFFFFFFFFFDFFFFF3FFFFC7FFFF9A3
:103E9800FFFFF3FFFFF8FFFFFE3FFFFF9FFFFFFF5E
:103EA800FFFFFFFFFFFFDFFFFFDFFFFFDFFFFFDF9A
:103EB800FFFFDFFFFFDFFFFFDF000000FFFFFFEF77
:103EC800FFFFF7FFFFFBFFFFFFFFFF00FFFFFFFF05
:103ED800F1FFFF76FFFEEEFFFEEEFFFE6DFFFF0037
:103EE800FFFFFFFFFFFFFF00FFFFFFE000FFFF7D79
:103EF800FFFEFEFFFEFEFFFEFEFFFEFEFFFF79FF58
:103F0800FF83FFFFFFFF0000FFFFFFFF83FFFF7D31
:103F1800FFFEFEFFFEFEFFFEFEFFFF7DFFFFFFFF31
:103F2800FFFFFFFF83FFFF7DFFFEFEFFFEFEFFFE9C
:103F3800FEFFFF7DFFE000FFFFFFFFFFFFFF000028
:103F4800FFFFFFFF83FFFF6DFFFEEEFFFEEEFFFEAC
:103F5800EEFFFF6EFFFF8DFFFFFFFF00FFFFFFFE7D
:103F6800FFFFF000FFEEFFFFEEFFFF00FFFFFFFF88
:103F780083FFFF7DDFFEFEEFFEFEEFFEFEEFFF7D1F
:103F8800DFFE003FFFFFFFFFFFFF0000FFFFFFE036
:103F980000FFFF7FFFFEFFFFFEFFFFFEFFFFFE7F2C
:103FA800FFFF00FFFFFFFFFFFFFF0000FFFFFFE62F
:103FB80000FFE7FFFFFFFFFFFFFFCFE6003FE7FF40
:103FC800FFFFFFFFFFFFFFE000FFFFEFFFFFC7FF5F
:103FD800FF97FFFF3BFFFF79FFFEFDFFFEFEFFFFA0
:103FE800FEFF0000FFFFFFE000FFFFFFFFFFFFFFF6
:103FF800FFFFFFFE00FFFF7FFFFEFFFFFEFFFFFE4C
:10400800FFFFFE7FFFFF00FFFF7FFFFEFFFFFEFFBA
:10401800FFFE7FFFFF00FFFFFFFFFFFFFF00000025
:10402800FFFFFFFE00FFFF7FFFFEFFFFFEFFFFFE1B
:10403800FFFFFE7FFFFF00FFFFFFFFFFFFFF000006
:10404800FFFFFFFF83FFFF7DFFFEFEFFFEFEFFFE7B
:10405800FEFFFEFEFFFF7DFFFF83FFFFFFFF000067
:10406800FFFFFFFE000FFF7DFFFEFEFFFEFEFFFECF
:10407800FEFFFEFEFFFF79FFFF83FFFFFFFF00004B
:10408800FFFFFFFF83FFFF7DFFFEFEFFFEFEFFFE3B
:10409800FEFFFF7DFFFE000FFFFFFFFFFFFF000099
:1040A800FFFFFFFE00FFFF7FFFFEFFFFFEFFFFFE9B
:1040B800FFFF0000FFFFFFFF1DFFFEDEFFFEEEFF1C
:1040C800FEEEFFFF71FFFFFFFF000000FFFFFFFE96
:1040D800FFFFF001FFFEFEFFFEFEFFFEFEFF0000F9
:1040E800FFFFFFFE01FFFFFCFFFFFEFFFFFEFFFFDC
:1040F800FEFFFFFDFFFE00FFFFFFFFFFFFFF0000C9
:10410800FE7FFFFF8FFFFFF1FFFFFEFFFFF9FFFFBD
:10411800E7FFFF9FFFFE7FFFFE7FFFFF0FFFFFE12F
:10412800FFFFFCFFFFF1FFFF0FFFFE3FFFFFC7FF91
:10413800FFF8FFFFF8FFFF87FFFE7FFFFEFEFFFE91
:104148007CFFFF11FFFFC7FFFFC3FFFF91FFFF7C4D
:10415800FFFEFEFFFE7FEFFF9FEFFFE3DFFFF83F6D
:10416800FFFCFFFFE3FFFF9FFFFE7FFFFEFEFFFE5A
:10417800FCFFFEFAFFFEE6FFFECEFFFEBEFFFE7E60
:10418800FFFEFEFFFFFFFFFFEFFFF8103FF7FFDF27
:10419800FFFFFF00FFFFFFE0000FFFFFFFFFFFFF34
:1041A800FFFFFFF7FFDFF8103FFFEFFFFFFFFF0004
:1041B800FFFFFFFFFFFFFFE7FFFFDFFFFFDFFFFF5F
:1041C800CFFFFFE7FFFFF7FFFFF7FFFFCFFFFFFF7F
:1041D800FFFFFFFF6800930101000000A4460008EC
:1041E8007FFFFFFFFFFFFFFFFFFFFFFFFEFFFFFF58
:1041F800FFFFFFFFFFFFFFFFFFFFE00000000000E1
:1042080000000000000007C00000000000000000DF
:1042180000000003C00000000000000000000000D3
:1042280003C0000000000000000000000003C003FD
:10423800FC0FFF3FFCF03FC0F01E03C003FC0FFF64
:104248003FFCF03FC0F01E03C003FC0FFF3FFCF033
:104258003FC0F01E03C003FC0FFF3FFCF03FC0F05F
:104268001E03C03C03CF0F03C0F3C03CFF1E03C0B6
:104278003C03CF0F03C0F3C03CFF1E03C03C03CF79
:104288000F03C0F3C03CFF1E03C03C03CF0F03C0A5
:10429800F3C03CFF1E03C03C03CFFF03C0F3C03C88
:1042A800F0FE03C03C03CFFF03C0F3C03CF0FE03A5
:1042B800C03C03CFFF03C0F3C03CF0FE03C03C0387
:1042C800CFFF03C0F3C03CF0FE03C03C03CF0003A4
:1042D800C0F3C03CF01E03C03C03CF0003C0F3C0D2
:1042E8003CF01E03C03C03CF0003C0F3C03CF01EEB
:1042F80003C03C03CF0003C0F3C03CF01E03C0035F
:10430800FC0F0003C0F03FC0F01E03C003FC0F0009
:1043180003C0F03FC0F01E03C003FC0F0003C0F051
:104328003FC0F01E03C003FC0F0003C0F03FC0F005
:104338001E03C0000000000000000000000003C0D1
:10434800000000000000000000000003E000000082
:10435800000000000000000007FFFFFFFFFFFFFF55
:10436800FFFFFFFFFFFF7FFFFFFFFFFFFFFFFFFFD5
:10437800FFFFFE0000000000000000000000000039
:104388000000000000000000000000000000000025
:104398000000000000000000000000000000000015
:1043A8000000000000000000000000000000000005
:1043B80000000000000000000000000000000000F5
:1043C800000003FC0FFF3FFCF03FC0F01E0000039D
:1043D800FC0FFF3FFCF03FC0F01E000003FC0FFF86
:1043E8003FFCF03FC0F01E000003FC0FFF3FFCF055
:1043F8003FC0F01E00003C03CF0F03C0F3C03CFFDA
:104408001E00003C03CF0F03C0F3C03CFF1E00009A
:104418003C03CF0F03C0F3C03CFF1E00003C03CF9A
:104428000F03C0F3C03CFF1E00003C03CFFF03C0D6
:10443800F3C03CF0FE00003C03CFFF03C0F3C03CD8
:10444800F0FE00003C03CFFF03C0F3C03CF0FE00C9
:10445800003C03CFFF03C0F3C03CF0FE00003C0368
:10446800CF0003C0F3C03CF01E00003C03CF0003A4
:10447800C0F3C03CF01E00003C03CF0003C0F3C0F3
:104488003CF01E00003C03CF0003C0F3C03CF01E0C
:10449800000003FC0F0003C0F03FC0F01E00000343
:1044A800FC0F0003C0F03FC0F01E000003FC0F002B
:1044B80003C0F03FC0F01E000003FC0F0003C0F073
:1044C8003FC0F01E000000000000000000000000D7
:1044D80000000000000000000000000000000000D4
:1044E80000000000000000000000000000000000C4
:1044F80000000000000000000000000000000000B4
:10450800000000000000FFFFFFFFFFFFFFFFFFFFAD
:10451800FFFFFFFFFFFFFFFFFFFFFFFFFFFFFFFFA3
:10452800FFFFFFFFFFFFFFFFFFFFFFFFFFFFFFFF93
:10453800FFFFFFFFFFFFFFFFFFFFFFFFFFFFFFFF83
:10454800FFFFFFFFFFFFFFFFFFFFFFFFFFFFFFFF73
:10455800FFFFFFFFFFFC03F000C0030FC03F0FE1A8
:10456800FFFFFC03F000C0030FC03F0FE1FFFFFC9B
:1045780003F000C0030FC03F0FE1FFFFFC03F00092
:10458800C0030FC03F0FE1FFFFC3FC30F0FC3F0C3E
:104598003FC300E1FFFFC3FC30F0FC3F0C3FC3000A
:1045A800E1FFFFC3FC30F0FC3F0C3FC300E1FFFF1D
:1045B800C3FC30F0FC3F0C3FC300E1FFFFC3FC30FD
:1045C80000FC3F0C3FC30F01FFFFC3FC3000FC3F62
:1045D8000C3FC30F01FFFFC3FC3000FC3F0C3FC37F
:1045E8000F01FFFFC3FC3000FC3F0C3FC30F01FF6E
:1045F800FFC3FC30FFFC3F0C3FC30FE1FFFFC3FCD0
:1046080030FFFC3F0C3FC30FE1FFFFC3FC30FFFC52
:104618003F0C3FC30FE1FFFFC3FC30FFFC3F0C3FE3
:10462800C30FE1FFFFFC03F0FFFC3F0FC03F0FE1AA
:10463800FFFFFC03F0FFFC3F0FC03F0FE1FFFFFC53
:1046480003F0FFFC3F0FC03F0FE1FFFFFC03F0FF4B
:10465800FC3F0FC03F0FE1FFFFFFFFFFFFFFFFFF22
:10466800FFFFFFFFFFFFFFFFFFFFFFFFFFFFFFFF52
:10467800FFFFFFFFFFFFFFFFFFFFFFFFFFFFFFFF42
:10468800FFFFFFFFFFFFFFFFFFFFFFFFFFFFFFFF32
:10469800FFFFFFFFFFFFFFFFFF000000E8410008EA
:1046A8006800930101000000704B00087FFFFFFFC6
:1046B800FFFFFFFFFFFFFFFFFEFFFFFFFFFFFFFF03
:1046C800FFFFFFFFFFFFE000000000000000000008
:1046D800000007C000000000000000000000000308
:1046E800C0000000000000000000000003C000003F
:1046F80000000000000000000003C000FFF3FFC03E
:10470800FF03FFCFFF0003C000FFF3FFC0FF03FF5D
:10471800CFFF0003C000FFF3FFC0FF03FFCFFF0080
:1047280003C000FFF3FFC0FF03FFCFFF0003C0007B
:10473800F0003C0F00F3C3C0F00003C000F0003CE1
:104748000F00F3C3C0F00003C000F0003C0F00F3FB
:10475800C3C0F00003C000F0003C0F00F3C3C0F07A
:104768000003C000FFF03C0FFFF3FC00F00003C0A3
:1047780000FFF03C0FFFF3FC00F00003C000FFF067
:104788003C0FFFF3FC00F00003C000FFF03C0FFFFC
:10479800F3FC00F00003C00000F03C0F00F3C3C0BE
:1047A800F00003C00000F03C0F00F3C3C0F00003AA
:1047B800C00000F03C0F00F3C3C0F00003C000F0DD
:1047C800F03C0F00F3C3C0F00003C000FFF03C0F43
:1047D80000F3C3C0F00003C000FFF03C0F00F3C3B8
:1047E800C0F00003C000FFF03C0F00F3C3C0F000AE
:1047F80003C000FFF03C0F00F3C3C0F00003C0008B
:104808000000000000000000000003C000000000DD
:104818000000000000000003E000000000000000AD
:104828000000000007FFFFFFFFFFFFFFFFFFFFFF84
:10483800FFFF7FFFFFFFFFFFFFFFFFFFFFFFFE0000
:104848000000000000000000000000000000000060
:104858000000000000000000000000000000000050
:104868000000000000000000000000000000000040
:104878000000000000000000000000000000000030
:10488800000000000000000000000000000000FF21
:10489800F3FFC0FF03FFCFFF00000000FFF3FFC0DE
:1048A800FF03FFCFFF00000000FFF3FFC0FF03FF7F
:1048B800CFFF00000000FFF3FFC0FF03FFCFFF00A2
:1048C800000000F0003C0F00F3C3C0F0000000003F
:1048D800F0003C0F00F3C3C0F000000000F0003C03
:1048E8000F00F3C3C0F000000000F0003C0F00F31D
:1048F800C3C0F000000000FFF03C0FFFF3FC00F025
:1049080000000000FFF03C0FFFF3FC00F000000087
:1049180000FFF03C0FFFF3FC00F000000000FFF088
:104928003C0FFFF3FC00F00000000000F03C0F001B
:10493800F3C3C0F00000000000F03C0F00F3C3C058
:10494800F00000000000F03C0F00F3C3C0F00000CE
:104958000000F0F03C0F00F3C3C0F000000000FFBF
:10496800F03C0F00F3C3C0F000000000FFF03C0F64
:1049780000F3C3C0F000000000FFF03C0F00F3C3D9
:10498800C0F000000000FFF03C0F00F3C3C0F000CF
:10499800000000000000000000000000000000000F
:1049A80000000000000000000000000000000000FF
:1049B80000000000000000000000000000000000EF
:1049C80000000000000000000000000000000000DF
:1049D8000000FFFFFFFFFFFFFFFFFFFFFFFFFFFFDD
:1049E800FFFFFFFFFFFFFFFFFFFFFFFFFFFFFFFFCF
:1049F800FFFFFFFFFFFFFFFFFFFFFFFFFFFFFFFFBF
:104A0800FFFFFFFFFFFFFFFFFFFFFFFFFFFFFFFFAE
:104A1800FFFFFFFFFFFFFFFFFFFFFFFFFFFFFFFF9E
:104A2800FFFF000C003F00FC003000FFFFFFFF000D
:104A38000C003F00FC003000FFFFFFFF000C003FB0
:104A480000FC003000FFFFFFFF000C003F00FC00EF
:104A58003000FFFFFFFF0FFFC3F0FF0C3C3F0FFFCD
:104A6800FFFFFF0FFFC3F0FF0C3C3F0FFFFFFFFFEF
:104A78000FFFC3F0FF0C3C3F0FFFFFFFFF0FFFC30B
:104A8800F0FF0C3C3F0FFFFFFFFF000FC3F0000CCF
:104A980003FF0FFFFFFFFF000FC3F0000C03FF0F22
:104AA800FFFFFFFF000FC3F0000C03FF0FFFFFFF26
:104AB800FF000FC3F0000C03FF0FFFFFFFFFFF0F06
:104AC800C3F0FF0C3C3F0FFFFFFFFFFF0FC3F0FFDA
:104AD8000C3C3F0FFFFFFFFFFF0FC3F0FF0C3C3FF5
:104AE8000FFFFFFFFF0F0FC3F0FF0C3C3F0FFFFF4F
:104AF800FFFF000FC3F0FF0C3C3F0FFFFFFFFF005D
:104B08000FC3F0FF0C3C3F0FFFFFFFFF000FC3F088
:104B1800FF0C3C3F0FFFFFFFFF000FC3F0FF0C3CF3
:104B28003F0FFFFFFFFFFFFFFFFFFFFFFFFFFFFF3D
:104B3800FFFFFFFFFFFFFFFFFFFFFFFFFFFFFFFF7D
:104B4800FFFFFFFFFFFFFFFFFFFFFFFFFFFFFFFF6D
:104B5800FFFFFFFFFFFFFFFFFFFFFFFFFFFFFFFF5D
:104B6800FFFFFFFFFF000000B446000868002603AF
:104B780001000000F4540008FFFFF8007FFFF80070
:104B88000000000000FFFFF8007FFFF800000000B1
:104B98000000FFFFF8007FFFF8000000000000FFA2
:104BA800FFF8007FFFF8000000000000FFFFF8009A
:104BB8007FFFF8000000000000FFFFF8007FFFF80B
:104BC800000000000000FFFFF8007FFFF800000071
:104BD800000000FFFFF8007FFFF800000000000061
:104BE800FFFFF8007FFFF8000000000000FFFFF85B
:104BF800007FFFF800000000000001F8000000FC42
:104C0800000003F000000001F8000000FC000003B1
:104C1800F000000001F8000000FC000003F00000B4
:104C28000001F8000000FC000003F000000001F89B
:104C3800000000FC000003F000000001F800000084
:104C4800FC000003F000000001F8000000FC000078
:104C580003F000000001F8000000FC000003F00071
:104C6800000001F8000000FC000003F00000000153
:104C7800F8000000FC0000000000000001F800003F
:104C880000FC0000000000000001F8000000FC002B
:104C980000000000000001F8000000FC0000000017
:104CA80000000001F8000000FC0000000000000007
:104CB80001F81FFFC0FC0FC003F03FFF8001F81F81
:104CC800FFC0FC0FC003F03FFF8001F81FFFC0FCCE
:104CD8000FC003F03FFF8001F81FFFC0FC0FC003A7
:104CE800F03FFF8001F81FFFC0FC0FC003F03FFF3B
:104CF8008001F81FFFC0FC0FFF03F03FFF8001F8A1
:104D08001FFFC0FC0FFF03F03FFF8001F81FFFC02B
:104D1800FC0FFF03F03FFF8001F81FFFC0FC0FFFEF
:104D280003F03FFF8001F81F8000FC0FFF03F03FF6
:104D3800000001F81F8000FC0FFF03F03F00000196
:104D4800F81F8000FC0FFF03F03F000001F81F80F0
:104D580000FC0FFF03F03F000001F81F8000FC0F6C
:104D6800FF03F03F000001F81FFE00FC0FC003F036
:104D78003FFF8001F81FFE00FC0FC003F03FFF80DB
:104D880001F81FFE00FC0FC003F03FFF8001F81F71
:104D9800FE00FC0FC003F03FFF8001F81FFE00FC7F
:104DA8000FC003F03FFF8001F81FFE00FC0FC00397
:104DB800F0001F8001F81FFE00FC0FC003F0001F69
:104DC8008001F81FFE00FC0FC003F0001F8001F8EF
:104DD8001FFE00FC0FC003F0001F8001F81FFE003B
:104DE800FC0FC003F0001F8001F81F8000FC0FC0FB
:104DF80003F0381F8001F81F8000FC0FC003F03853
:104E08001F8001F81F8000FC0FC003F0381F8001CD
:104E1800F81F8000FC0FC003F0381F8001F81FFF47
:104E2800C0FC0FC003F03FFF8001F81FFFC0FC0F5C
:104E3800C003F03FFF8001F81FFFC0FC0FC003F064
:104E48003FFF8001F81FFFC0FC0FC003F03FFF8049
:104E580001F81FFFC0FC0FC003F03FFF8001F81FDF
:104E6800FFC0FC0FC003F03FFF8001F81FFFC0FC2C
:104E78000FC003F03FFF8001F81FFFC0FC0FC00305
:104E8800F03FFF8001F81FFFC0FC0FC003F03FFF99
:104E98008001F81FFFC0FC0FC003F03FFF80000037
:104EA80000000000000000000000000000000000FA
:104EB80000000000000000000000000000000000EA
:104EC80000000000000000000000000000000000DA
:104ED80000000000000000000000000000000000CA
:104EE80000000000000000000000000000000000BA
:104EF80000000000000000000000000000000000AA
:104F08000000000000000000000000000000000099
:104F18000000000000000000000000000000000089
:104F28000000000000000000000000000000000079
:104F38000000000000000000000000000000000069
:104F48000000000000000000000000000000000059
:104F58000000000000000000000000000000000049
:104F68000000000000000000000000000000000039
:104F78000000000000000000000000000000000029
:104F88000000000000000000000000000000000019
:104F98000000000000000000000000000000000009
:104FA80000000000000000000000000000000000F9
:104FB80000000000000000000000000000000000E9
:104FC80000000000000000000000000000000000D9
:104FD80000000000000001F8000000FC00000000D4
:104FE80000000001F8000000FC00000000000000C4
:104FF80001F8000000FC0000000000000001F800BB
:105008000000FC0000000000000001F8000000FCA7
:105018000000000000000001F8000000FC00000093
:105028000000000001F8000000FC00000000000083
:105038000001F8000000FC0000000000000001F87A
:10504800000000FC0000000000000001F81F8000C4
:10505800FC000000003F000001F81F8000FC0FFF6B
:1050680003F03F000001F81F8000FC0FFF03F03F32
:10507800000001F81F8000FC0FFF03F03F00000153
:10508800F81F8000FC0FFF03F03F000001F81FFE2F
:1050980000FC0FC003F03FFF8001F81FFE00FC0F6B
:1050A800C003F03FFF8001F81FFE00FC0FC003F0B3
:1050B8003FFF8001F81FFE00FC0FC003F03FFF8098
:1050C80001F81FFE00FC0FC003F03FFF8001F81F2E
:1050D800FE00FC0FC003F0001F8001F81FFE00FC5B
:1050E8000FC003F0001F8001F81FFE00FC0FC00373
:1050F800F0001F8001F81FFE00FC0FC003F0001F26
:105108008001F81FFE00FC0FC003F0001F8001F8AB
:105118001F8000FC0FC003F0381F8001F81F8000BB
:10512800FC0FC003F0381F8001F81F8000FC0FC07F
:1051380003F0381F8001F81F8000FC0FC003F0380F
:105148001F8001F81FFFC0FC0FC003F03FFF800164
:10515800F81FFFC0FC0FC003F03FFF8001F81FFFDE
:10516800C0FC0FC003F03FFF8001F81FFFC0FC0F19
:10517800C003F03FFF8001F81FFFC0FC0FC003F021
:105188003FFF8001F81FFFC0FC0FC003F03FFF8006
:1051980001F81FFFC0FC0FC003F03FFF8001F81F9C
:1051A800FFC0FC0FC003F03FFF8001F81FFFC0FCE9
:1051B8000FC003F03FFF8001F81FFFC0FC0FC003C2
:1051C800F03FFF80FFFFFFFFFFFFFFFFFFFFFFFF35
:1051D800FFFFFFFFFFFFFFFFFFFFFFFFFFFFFFFFD7
:1051E800FFFFFFFFFFFFFFFFFFFFFFFFFFFFFFFFC7
:1051F800FFFFFFFFFFFFFFFFFFFFFFFFFFFFFFFFB7
:10520800FFFFFFFFFFFFFFFFFFFFFFFFFFFFFFFFA6
:10521800FFFFFFFFFFFFFFFFFFFFFFFFFFFFFFFF96
:10522800FFFFFFFFFFFFFFFFFFFFFFFFFFFFFFFF86
:10523800FFFFFFFFFFFFFFFFFFFFFFFFFFFFFFFF76
:10524800FFFFFFFFFFFFFFFFFFFFFFFFFFFFFFFF66
:10525800FFFFFFFFFFFFFFFFFFFFFFFFFFFFFFFF56
:10526800FFFFFFFFFFFFFFFFFFFFFFFFFFFFFFFF46
:10527800FFFFFFFFFFFFFFFFFFFFFFFFFFFFFFFF36
:10528800FFFFFFFFFFFFFFFFFFFFFFFFFFFFFFFF26
:10529800FFFFFFFFFFFFFFFFFFFFFFFFFFFFFFFF16
:1052A800FFFFFFFFFFFFFFFFFFFFFFFFFFFFFFFF06
:1052B800FFFFFFFFFFFFFFFFFFFFFFFFFFFFFFFFF6
:1052C800FFFFFFFFFFFFFFFFFFFFFFFFFFFFFFFFE6
:1052D800FFFFFFFFFFFFFFFFFFFFFFFFFFFFFFFFD6
:1052E800FFFFFFFFFFFFFFFFFFFFFFFFFFFFFFFFC6
:1052F800FFFFFFFFFFFFFFFFFFFFFFFFFE07FFFFAF
:10530800FF03FFFFFFFFFFFFFFFE07FFFFFF03FF96
:10531800FFFFFFFFFFFFFE07FFFFFF03FFFFFFFF8A
:10532800FFFFFFFE07FFFFFF03FFFFFFFFFFFFFF7A
:10533800FE07FFFFFF03FFFFFFFFFFFFFFFE07FF63
:10534800FFFF03FFFFFFFFFFFFFFFE07FFFFFF0356
:10535800FFFFFFFFFFFFFFFE07FFFFFF03FFFFFF4A
:10536800FFFFFFFFFE07FFFFFF03FFFFFFFFFFFF3A
:10537800FFFE07E07FFF03FFFFFFFFC0FFFFFE0701
:10538800E07FFF03F000FC0FC0FFFFFE07E07FFF98
:1053980003F000FC0FC0FFFFFE07E07FFF03F000F3
:1053A800FC0FC0FFFFFE07E07FFF03F000FC0FC00B
:1053B800FFFFFE07E001FF03F03FFC0FC0007FFE88
:1053C80007E001FF03F03FFC0FC0007FFE07E0018C
:1053D800FF03F03FFC0FC0007FFE07E001FF03F072
:1053E8003FFC0FC0007FFE07E001FF03F03FFC0F0A
:1053F800C0007FFE07E001FF03F03FFC0FFFE07FE6
:10540800FE07E001FF03F03FFC0FFFE07FFE07E02F
:1054180001FF03F03FFC0FFFE07FFE07E001FF0301
:10542800F03FFC0FFFE07FFFFFE001FF03F03FFCD0
:105438000FFFE07FFFFFFFFFFFFFFFFFFFFFFFFF03
:10544800FFFFFFFFFFFFFFFFFFFFFFFFFFFFFFFF64
:10545800FFFFFFFFFFFFFFFFFFFFFFFFFFFFFFFF54
:10546800FFFFFFFFFFFFFFFFFFFFFFFFFFFFFFFF44
:10547800FFFFFFFFFFFFFFFFFFFFFFFFFFFFFFFF34
:10548800FFFFFFFFFFFFFFFFFFFFFFFFFFFFFFFF24
:10549800FFFFFFFFFFFFFFFFFFFFFFFFFFFFFFFF14
:1054A800FFFFFFFFFFFFFFFFFFFFFFFFFFFFFFFF04
:1054B800FFFFFFFFFFFFFFFFFFFFFFFFFFFFFFFFF4
:1054C800FFFFFFFFFFFFFFFFFFFFFFFFFFFFFFFFE4
:1054D800FFFFFFFFFFFFFFFFFFFFFFFFFFFFFFFFD4
:1054E800FFFFFFFFFFFFFFFFFFFF0000804B0008EB
:1054F800AF00AF00A200B000BB00BC00D400B000F9
:10550800C800BB00A300BC00A200AF00AF00A2000F
:10551800C800BB00AF00AF00C800BC00BB00A300C0
:10552800BB00A200AF00BB00BC00AF00BB00A200E4
:10553800BB00BC00BC00BC00A300BB00C800C80086
:10554800C800AF00BD00AF00AF00BC00BC00BB008E
:10555800C900AF00D500B000BB00BC00BC00C8004B
:10556800C800BC00C800A20032000000840164002A
:105578008A0064007D008A00EF02E100E801010270
:10558800F401E100EE000601F5017D007E007D00DA
:1055980071007000F40100004B02D2010B024B02B3
:1055A8000B02D2014B020B02D2010B02D2010B02F9
:1055B800D2016E02D2016E024B02D2014B02D2011D
:1055C8000B02D20188010B024B020B026E024B0246
:1055D8000B02D2010B02D2010B024B020B02D201C9
:1055E800ED01ED01880149014901B801B801B8018F
:1055F8002A022A024B0293024B024B024B02B801C9
:105608008801ED01ED01ED01B801B801ED01B80126
:10561800D2010000490149018801B8018801B80197
:105628004B024B020F03BA024B024B020B02BA02A7
:105638000B024B024B020B02ED01B801880100007E
:105648000C006A01D50277032704E204FC06660809
:10565800C509300B9A0C050EC10E630F12102012EB
:105668008A13F5144716BE170F19D719931A4E1B2C
:105678005C1DBA1E2520D4208F21FA224024B7258C
:1056880015278C28EA29482B042C00000C00C80098
:10569800A9017D020204C4054707FE08DF099B0A29
:1056A800630B2C0C000DD50D9D0E7E0F1C11C51221
:1056B80056140016C8169D1772184719E9190000E4
:1056C8000C003E000C009001F4017E02E2025F0330
:1056D800E903D908D309BB0BBC0DB7109811861282
:1056E8008C136F16751770186A19DB194B1A3F1C43
:1056F8007C5E00080400140008000000885E0008B2
:105708000500140008000000985E00080700140057
:1057180008000000B05E00080A001400080000003D
:10572800D05E00080900140008000000EC5E0008C4
:105738000E00140008000000185F00080E00140096
:1057480008000000445F000804001400080000007E
:10575800505F00080500140008000000605F0008A2
:105768000500140008000000705F0008070014001E
:1057780008000000885F00080C0014000800000002
:10578800AC5F00080400140008000000B85F0008BF
:105798000700140008000000D05F0008040014008F
:1057A80008000000DC5F0008070014000800000083
:1057B800F45F0008090014000800000010600008E9
:1057C80009001400080000002C60000809001400FB
:1057D80008000000486000080900140008000000E4
:1057E80064600008090014000800000080600008D8
:1057F80009001400080000009C600008090014005B
:1058080008000000B8600008090014000800000043
:10581800D46000080900140008000000F0600008C7
:1058280009001400080000000C61000804001400BE
:1058380008000000186100080400140008000000B7
:10584800246100080C0014000800000048610008EA
:105858000C001400080000006C6100080C00140023
:10586800080000009061000808001400080000000B
:10587800A86100081100140008000000DC6100089D
:105888000B00140008000000006200080A00140061
:1058980008000000206200080B0014000800000047
:1058A800446200080C001400080000006862000848
:1058B80009001400080000008462000808001400B1
:1058C800080000009C6200080C001400080000009A
:1058D800C06200080C00140008000000E462000820
:1058E8000500140008000000F46200080600140017
:1058F80008000000086300080B00140008000000FE
:105908002C63000808001400080000004463000825
:105918000F00140008000000746300080D00140054
:10592800080000009C6300080D0014000800000037
:10593800C46300080A00140008000000E4630008BB
:105948000D001400080000000C6400080A00140090
:10595800080000002C64000809001400080000007A
:105968004864000809001400080000006464000886
:105978000C00140008000000886400080B001400E4
:1059880008000000AC6400081000140008000000C3
:10599800DC6400080A00140008000000FC64000829
:1059A8000A001400080000001C6500080A00140022
:1059B800080000003C65000805001400080000000D
:1059C8004C65000806001400080000006065000827
:1059D8000500140008000000706500080C001400A1
:1059E8000800000094650008070014000800000083
:1059F800AC6500080500140008000000BC6500083C
:105A08000900140008000000D86500080A00140006
:105A180008000000F86500080800140008000000ED
:105A2800106600080A00140008000000306600082C
:105A380009001400080000004C6600080500140066
:105A4800080000005C6600080A0014000800000056
:105A58007C6600080A001400080000009C66000824
:105A68000400140008000000A866000804001400E0
:105A780008000000B46600080A00140008000000CE
:105A8800D46600080400140008000000E06600085E
:105A98000F00140008000000106700080A00140036
:105AA80008000000306700080A0014000800000021
:105AB800506700080A00140008000000706700081A
:105AC8000A0014000800000090670008060014008F
