:020000040800F2
:10000000005000200D190008590100085B0100088C
:100010005D0100085F0100086101000800000000A8
:100020000000000000000000000000006301000864
:100030006501000800000000670100086901000870
:1000400055190008551900085519000855190008D8
:1000500055190008551900085519000855190008C8
:1000600055190008551900085519000855190008B8
:1000700055190008551900085519000855190008A8
:100080005519000855190008551900085519000898
:100090005519000855190008551900085519000888
:1000A0005519000855190008551900085519000878
:1000B0005519000855190008551900085519000868
:1000C0005519000855190008551900085519000858
:1000D0005519000855190008551900085519000848
:1000E00055190008551900085519000800000000AE
:1000F0000000000000000000000000000000000000
:0C01000000000000000000005FF808F1A3
:10010C0010B5054C237833B9044B13B10448AFF345
:10011C0000800123237010BD0C02002000000000A1
:10012C00CC19000808B5034B1BB103490348AFF3C6
:10013C00008008BD0000000010020020CC1900084F
:10014C0008B500F00FFB00F019FBFEE77047FEE767
:10015C00FEE7FEE7FEE77047704770477047000008
:10016C0082B00023019300932C4A136843F480332C
:10017C0013602A4B1B6803F400330093019B01337B
:10018C000193009B1BB9019BB3F5A06FF1D1234BDD
:10019C001B6813F4003F06D001230093009B012B36
:1001AC0004D002B0704700230093F7E71C4B1A6889
:1001BC0042F010021A601A6822F007021A601A68DC
:1001CC0042F002021A60A3F580535A685A605A68CA
:1001DC005A605A6842F480625A605A6822F47C125F
:1001EC005A605A6842F4E8125A601A6842F08072F7
:1001FC001A600A4B1B6813F0007FFAD0074B5A6841
:10020C0022F003025A605A6842F002025A60034B11
:10021C005B6803F00C03082BF9D1C2E70010024015
:10022C000020024008B5FFF79BFF08BD08B5104B36
:10023C001A6842F001021A6059680E4A0A405A6064
:10024C001A6822F0847222F480321A601A6822F43E
:10025C0080221A605A6822F4FE025A604FF41F0280
:10026C009A60FFF7DFFF044B4FF000629A6008BD05
:10027C00001002400000FFF800ED00E010B402682E
:10028C0022F4FF4222F070028B680C6A23430C6943
:10029C0023434C6923438C692343CC6923434C6A25
:1002AC0023438C6A234313430360CB6843600B687E
:1002BC0083604B68C36010BC704721B1036843F086
:1002CC00010303607047036823F001031B041B0C3C
:1002DC00036070474160704710F0805F05D0054B9C
:1002EC001B68034204D001207047034B1B68F8E7DE
:1002FC0000207047000402400000024010F0805FB4
:10030C0002D0034B58607047024B5860704700BFD7
:10031C00000402400000024030B5CB7803F00F021D
:10032C00964613F0100F03D091F802E04EEA020E3D
:10033C000B7803B30468002301E042610133072BFF
:10034C0018D801229A40B1F800C032EA0C05F5D158
:10035C004FEA830C0F2505FA0CF524EA05040EFA76
:10036C000CFC4CEA0404CD78282DE6D0482DE5D1C0
:10037C000261E3E704600B88FF2B25D94468002356
:10038C0003E0CD78482D1CD00133072B1BD803F18B
:10039C00080C012202FA0CF2B1F800C032EA0C058A
:1003AC00F2D14FEA830C0F2505FA0CF524EA05046B
:1003BC000EFA0CFC4CEA0404CD78282DE1D14261F4
:1003CC00DFE70261E0E7446030BD8368194201D089
:1003DC0001207047002070470161704741617047F0
:1003EC000AB10161704741617047000010B4294B9C
:1003FC005B6803F00C03042B2BD0082B2CD013B10F
:10040C00254B036001E0244B036022494B68C3F386
:10041C000313224CE35CDAB20368D34043604A68AE
:10042C00C2F30222A25CD2B223FA02F282604A68C0
:10043C00C2F3C222A25CD2B2D340C3604A68C2F3F8
:10044C00813217498A5CD2B2B3FBF2F3036110BC60
:10045C007047114B0360D8E70E4A53685268C3F3D8
:10046C008343023312F4803F04D10E4A02FB03F3A0
:10047C000360CAE7074A526812F4003F04D0094AE5
:10048C0002FB03F30360C0E7034A02FB03F30360C0
:10049C00BBE700BF0010024000127A0004000020ED
:1004AC000000002000093D0021B1054A53691843A2
:1004BC0050617047024A536923EA0000506170474B
:1004CC000010024021B1054A9369184390617047AE
:1004DC00024A936923EA00009061704700100240C1
:1004EC0021B1054AD3691843D0617047024AD369D8
:1004FC0023EA0000D0617047001002402DE9F04162
:10050C00038803F441520F88B1F802808E88CD889D
:10051C000C89B1F80AE0B1F80CC0CB8947EA08079E
:10052C003E4335432C434EEA040E4CEA0E0C43EA90
:10053C000C0313430380838B9BB223F400639BB2A5
:10054C0083830B8A0382BDE8F08129B103889BB2B7
:10055C0043F040030380704703889BB223F04003B1
:10056C009BB203807047818170470389194201D087
:10057C00012070470020704703889BB2214A9042AB
:10058C0012D002F5006290420ED0B0F1804F0BD029
:10059C00A2F59832904207D002F58062904203D0C7
:1005AC0002F58062904203D123F070034A88134312
:1005BC00154A904208D002F58062904204D023F490
:1005CC0040739BB2CA88134303808B8883850B8846
:1005DC0003850C4B98420FD003F5006398420BD067
:1005EC0003F54063984207D003F58063984203D02B
:1005FC0003F58063984201D10B7A03860123838231
:10060C00704700BF002C01400010004029B1038846
:10061C009BB243F001030380704703889BB223F025
:10062C0001039BB20380704781847047808C80B239
:10063C007047000030B587B004460D46038A9BB264
:10064C00CA8823F440531343038283899BB289885D
:10065C0028896A8901430A4323F4B05323F00C031D
:10066C001343A381A38A9BB2AA8923F44073134337
:10067C00A38201A8FFF7BAFE1D4B9C4224D0039B1A
:10068C00A28912F4004F21D103EB830303EB830304
:10069C002A689200B3FBF2F3164AA2FB031252092A
:1006AC001101642002FB1033A28912F4004F16D101
:1006BC001B0132330F4AA2FB0323C3F343130B4337
:1006CC009BB2238107B030BD049BD9E703EB8303B6
:1006DC0003EB83032A685200B3FBF2F3DCE7DB0085
:1006EC003233044AA2FB0323C3F342130B43E7E761
:1006FC00003801401F85EB5129B183899BB243F42B
:10070C0000538381704783899BB223F400539BB2BF
:10071C008381704722B1838A9BB2194381827047CF
:10072C00838AC94389B2194081827047C1F3080199
:10073C0081807047012800D0704708B54FF6FF73D1
:10074C00994200D008BD024800F052FAFAE700BF07
:10075C002802002008B5024800F00CFB08BD00BFC1
:10076C002802002008B5FFF7F5FF08BD08B50248C0
:10077C0000F09BFB08BD00BF2802002008B5FFF766
:10078C00F5FFFCE708B54FF6FF710120FFF7D2FF2C
:10079C0008BD00000346044A1068C3F84E0000224E
:1007AC0083F84C20704700BFF819000808B50346C1
:1007BC00074A1068C3F84E00012283F84C206422CB
:1007CC00002103F1F80001F0F3F800F089FB08BDFB
:1007DC00001A000838B50446114B1A889B78A0F80B
:1007EC004E2080F85030022380F84C300D4D002103
:1007FC002846FFF781FF21460B4B41F8E83F28467E
:10080C00FFF718FF01212846FFF776FF4FF404721B
:10081C00FF2104F1F80001F0CBF800F061FB38BDCA
:10082C00081A00080048004040420F0038B5044642
:10083C000C4B1868C4F84E00032384F84C300A4D56
:10084C0000212846FFF758FF21464FF4E13341F8C9
:10085C00E83F2846FFF7EEFE01212846FFF74CFF44
:10086C0038BD00BF0C1A00080048004038B50446DB
:10087C00124B1868C4F84E001B7984F852300423CC
:10088C0084F84C300E4D00212846FFF735FF2146E9
:10089C000C4B41F8E83F2846FFF7CCFE01212846D7
:1008AC00FFF72AFF4FF40472FF2104F1F80001F066
:1008BC007FF80023A4F8E03038BD00BF141A0008FC
:1008CC000048004040420F0010B50446203000F0B4
:1008DC00F6FB18B9636E002B3EDC10BD4FF47A7337
:1008EC0063660023C4F84E30C4F85230C4F8563056
:1008FC00C4F85A30C4F85E3094F84D300133DBB292
:10090C0084F84D301A4AA2FB031202F0FC0101EBF1
:10091C0092029B1ADBB284F84D30042B18D8DFE816
:10092C0003F003070B0F13002046FFF733FFD1E74B
:10093C002046FFF73BFFCDE72046FFF74BFFC9E70B
:10094C002046FFF773FFC5E72046FFF78FFFC1E78F
:10095C00052384F84C30BDE7204600F0B3F902883B
:10096C00636E9B1A6366002BB7DC00236366B4E7E7
:10097C00CDCCCCCC2DE9F04184B00446436E002B99
:10098C0046DC90F84C30022B4DD0002B58D0012B6C
:10099C005ED0032B00F0CC80042B41D100F092F9F7
:1009AC000388B4F8DA201344A4F8DA30204600F0B7
:1009BC0089F90388B4F8DE201344A4F8DE30B4F8C7
:1009CC00DA30B3F57A7F80F0E58004F1280000F08E
:1009DC0076FB30B194F8E430B3FA83F35B0984F816
:1009EC00E43094F8E430002B40F0E98001250095C8
:1009FC0000231A46B4F8DC10204600F0A7FB009543
:100A0C000E230022B4F8E210204600F09FFB07E012
:100A1C000123009300231A4600F14E0100F042FC22
:100A2C0004B0BDE8F08101230293302301935423D9
:100A3C00009300F1F8030022114600F0B3FDEFE73C
:100A4C000123009300231A46644900F0F7FBE7E703
:100A5C0090F8F83063B3002500E00135632D27DCF6
:100A6C00631993F8F8300A2B01D0632DF5D104F1FA
:100A7C00690604F1F8072A463946304600F08AFF29
:100A8C0025444FF0000885F86980642241463846B9
:100A9C0000F08EFF00F024FA304600F075FCC4F82C
:100AAC00D400C4F8D0804FF400514D4800F00BFA3C
:100ABC00204600F007F90388B4F8CE2013449BB20B
:100ACC00A4F8CE30092B0AD801230093D4F8D030E7
:100ADC00002204F16901204600F0E4FBA0E7414A42
:100AEC00A2FB0312D20802EB8202A3EB4203A4F88E
:100AFC00CE3004F1300000F081FA58B1D4F8D02097
:100B0C00D4F8D430303B1344002BDDDD013AC4F86B
:100B1C00D020D9E704F1280000F070FA0028D3D0D7
:100B2C00D4F8D030002BCFDA0133C4F8D030CBE777
:100B3C00283000F0C4FA88B1772384F8D83094F8C0
:100B4C00D8102948FFF7F2FD0123009300231A4621
:100B5C0094F8D810204600F0D7FA61E704F1300081
:100B6C0000F0ADFA18B1732384F8D830E7E704F13C
:100B7C00380000F0A4FA18B1642384F8D830DEE70A
:100B8C0004F1400000F09BFA0028DDD0612384F8CA
:100B9C00D830D4E7154AA2FB031292094FF47A71AC
:100BAC0001FB1233A4F8DA30204600F08BF80388EE
:100BBC00A4F8DC30B4F8E030A4F8E23005E7012307
:100BCC000293302301935423009304F1F803002281
:100BDC001021204600F0E6FC08E700BF1C1A0008B4
:100BEC0000100140CDCCCCCC00480040D34D62105D
:100BFC0070B5044600F068FA2F4D4FF40072294688
:100C0C0004F1200000F0C2F90122294604F1280069
:100C1C0000F0BCF9294E4022314604F1300000F0BE
:100C2C00B5F90222294604F1380000F0AFF9802210
:100C3C00314604F1400000F0A9F9002584F84C502D
:100C4C0084F84D501E4B1868C4F84E001B7984F87C
:100C5C005230C4F85350C4F85750C4F85B50C4F821
:100C6C005E50656684F86850A4F8CE50C4F8D05035
:100C7C00C4F8D450732384F8D830A4F8DA50A4F80C
:100C8C00DC50A4F8DE50A4F8E050A4F8E2500126A1
:100C9C0084F8E460A4F8E6504FF40472294604F199
:100CAC00F80000F085FE84F8F860A4F8085384F886
:100CBC000A53204670BD00BF000C014000080140E3
:100CCC00E41900084830704708B5FFF753FE08BD1B
:100CDC0038B50446FFF7F6FF0546017804F120000D
:100CEC0000F090F9297804F1280000F08BF92978AC
:100CFC0004F1300000F086F9297804F1380000F096
:100D0C0081F9297804F1400000F07CF938BD00002D
:100D1C0010B58CB0044601210846FFF7C5FB4FF413
:100D2C0004730493002303930B93F83402940893F5
:100D3C0080220692202209920B4A01920793059376
:100D4C004FF480530A93094C01A92046FFF796FAF9
:100D5C0001212046FFF7B1FA012240210448FFF798
:100D6C00D9FC0CB010BD00BF04480040300002405C
:100D7C0000480040F0B583B00446483000F0C2F89B
:100D8C00204600F0B5F901211020FFF79BFB102342
:100D9C008DF807304FF40057ADF8047003258DF82B
:100DAC000650264E01A93046FFF7B6FA39463046B2
:100DBC00FFF712FB01210820FFF784FB18238DF8A5
:100DCC0007304FF48063ADF804308DF80650A6F56B
:100DDC00806601A93046FFF79FFA04238DF807308F
:100DEC004FF40063ADF804308DF8065001A930467D
:100DFC00FFF792FA01214FF48020FFF771FB104BA3
:100E0C00C4F8E8300023A4F8F4300C22A4F8F22043
:100E1C00A4F8F030A4F8EE30A4F8EC30094D04F14D
:100E2C00E8012846FFF706FC01212846FFF764FC81
:100E3C002046FFF76DFF03B0F0BD00BF001001406E
:100E4C0040420F000048004010B504464FF40070BB
:100E5C00FFF742FA012800D010BD94F84C30022B59
:100E6C0001D0042BF8D14FF40051074800F02BF8B7
:100E7C004FF40070FFF742FAB4F8DE30A4F8E0301B
:100E8C000023A4F8DE30E7E70010014010B504465B
:100E9C00483000F057F82046FFF71AFF2046FFF7BE
:100EAC0013FD2046FFF7D0FF10BD10B50446FFF729
:100EBC00EDFF204600F074FC2046FFF705FF2046AE
:100ECC0000F014FC10BD38B504460D46FFF77DFA52
:100EDC00B0FA80F2520929462046FFF781FA38BD54
:100EEC0010B5074C00212046FFF7E7F94FF40471C9
:100EFC002046FFF7EFF901212046FFF7DEF910BD80
:100F0C003000024010B584B001214FF40060FFF7AF
:100F1C00D9FA0023ADF80A30ADF806304FF6FF735E
:100F2C00ADF808304723ADF80430054C01A9204634
:100F3C00FFF722FB01212046FFF768FB04B010BD30
:100F4C00002C014038B505460E48FFF76FFB002317
:100F5C002B800D49A1FB003189094FF47A7303FBF7
:100F6C00110189B26980984200D238BD0446054807
:100F7C00FFF75AFB0448A0FB0434C4F38F142C80F5
:100F8C00F3E700BF002C0140D34D621010B582B0C6
:100F9C000446802383710023C3718280016003F1B6
:100FAC00804303F58433994215D0124B994217D0E4
:100FBC00114B994219D048238DF80730A388ADF80E
:100FCC00043003238DF8063001A92068FFF7A4F93B
:100FDC00204602B010BD01210420FFF773FAEAE7A6
:100FEC0001210820FFF76EFAE5E701211020FFF739
:100FFC0069FAE0E7000C0140001001408079C0F371
:10100C008010704738B50446802924D9818800683F
:10101C00FFF7DBF9E0B18023A371E37913F0040F40
:10102C0040D043F00203E3712046FFF7E7FF0028AE
:10103C003CD0E37943F00403E371E37913F0020F3E
:10104C0039D013F0040F36D143F00103E37135E0CE
:10105C00C023A371E1E70D4681880068FFF7B5F95D
:10106C0078B9A379802B09D0C02BD6D95B1BDBB206
:10107C00A371BF2BD1D8C023A371CEE7D423A37106
:10108C00CBE7A379C02B0AD0802BC6D95B1BDBB274
:10109C00A37113F0800FC0D18023A371BDE79423FB
:1010AC00A371BAE723F00203E371BDE7E37923F000
:1010BC000403E371C1E723F00103E37138BDC07988
:1010CC0000F001007047000010B582B004464FF4E8
:1010DC00007300934FF48073034A044900F0B0F995
:1010EC00204602B010BD00BF00080140003800408F
:1010FC0010B504460422642100F03AFB3A21204644
:10110C0000F0ACFA10BD0000A1F1200C5FFA8CFCD1
:10111C00BCF15E0F00D9704700B585B096461A46F3
:10112C00CCEBCC0C9DF8183002930E2301930823C2
:10113C000093054B03EB4C0312B20FFA8EF100F047
:10114C0031FA05B05DF804FB281A00082DE9F043CC
:10115C008BB006469DF8488017B21DB231B11446CB
:10116C008946002910DB3C46002131E0CDF808808F
:10117C000E230193082300932C4B2A46394600F08A
:10118C0011FA0BB0BDE8F083CDF808800E23019363
:10119C0008230093264B2A46394600F003FA6400D4
:1011AC0024B2C9F10009DFE7224B83FB09234FEA84
:1011BC00E972C2EBA302134602EB8202A9EB4202D4
:1011CC00303201F12800684400F8142C99460131A2
:1011DC00B9F1000FE8DC01F1FF3907E00E352DB253
:1011EC003C4601E0083424B209F1FF39B9F1000F93
:1011FC00C7DB09F128036B4413F8143C0A2BEDD020
:10120C00203BDBB25E2BEDD8C3EBC303CDF80880DB
:10121C000E22019208220092074A02EB43032A464F
:10122C002146304600F0BEF9DCE700BF081B000881
:10123C00DE1A000867666666281A00082DE9F04772
:10124C0084B081460E469DF830A00FFA82F81FB28A
:10125C004546002405E00E373FB2454601E008350F
:10126C002DB2335DC3B10134A4B20A2BF3D0203BB1
:10127C00DBB25E2BF3D8C3EBC303CDF808A00E2270
:10128C00019208220092064A02EB43033A46294691
:10129C00484600F087F9E2E704B0BDE8F08700BFEC
:1012AC00281A00082DE9F04F85B0824688469DF833
:1012BC0038B00FFA82F91FB24E4600252C4623E0B7
:1012CC000E373FB24E460134A4B2AC421AD818F8CD
:1012DC0004300A2BF4D0203BDBB25E2BF3D8C3EBEB
:1012EC00C303CDF808B00E22019208220092254AC1
:1012FC0002EB43033A463146504600F053F90836A8
:10130C0036B2E0E70135ADB218F8053063B1202BE9
:10131C0001D00A2BF6D12B1B06EBC303542BD4DDC7
:10132C000E373FB24E46D0E7AC4228D22B1B06EB11
:10133C00C303542B07DD0E373FB24E4603E0013496
:10134C00A4B2083636B2AC4219D818F80430A3F15E
:10135C002102D2B25D2AF2D8203BDBB2C3EBC3032D
:10136C00CDF808B00E22019208220092054A02EB39
:10137C0043033A463146504600F014F9DFE705B016
:10138C00BDE8F08F281A000810B5044600210B4662
:10139C008E468C4617E00EF10E001FFA80FE4FF0C1
:1013AC00000C01339BB28B420BD8E25C0A2AF2D0C0
:1013BC00203AD2B25E2AF4D80CF1080C1FFA8CFC3D
:1013CC00EFE7013189B2625C7AB1202A01D00A2A96
:1013DC00F7D1CA1A0CEBC202542AE4DD0EF10E004E
:1013EC001FFA80FE4FF0000CDDE78B4208D2CB1ABF
:1013FC000CEBC303542B03DD0EF10E001FFA80FE21
:10140C000EF10E0080B210BD00B59DF804E090F80E
:10141C0018C08C4500D38C4680F818C0417E994288
:10142C0000D819464176837E934200D313468376C7
:10143C00C37E734500D87346C3765DF804FB000089
:10144C0070B582B0044615461E4600F0BFF9002365
:10145C0023771949204600F0BBF96682BDF8183095
:10146C002382E560154B9D4217D0154B9D4219D038
:10147C00144B9D421BD010238DF80730238A628AAF
:10148C001343ADF8043003238DF8063001A9E0684E
:10149C00FEF742FF204602B070BD01210420FFF789
:1014AC0011F8E8E701210820FFF70CF8E3E7012128
:1014BC001020FFF707F8DEE7003800400008014075
:1014CC00000C01400010014070B582B014468AB285
:1014DC00532A2AD80D461E46002C26DB2F2C24DC42
:1014EC00037F022B28D0032B2DD0012B1FD0E9B268
:1014FC00E2B200920B46FFF787FF5EB32346002C47
:10150C0026DB43F3CF03542101FB0355634204F064
:10151C00070403F0070358BF5C42012303FA04F4E9
:10152C00069B5B5D2343069A535502B070BDC2F116
:10153C002F02254614B2DAE7C2F1530215B2C4F1F8
:10154C002F0424B2D3E7C4F153030C461DB2CEE7EB
:10155C00E31DD6E72346002C13DB43F3CF035421C2
:10156C0001FB0355634204F0070403F0070358BF63
:10157C005C420123A340069A545D24EA03045455AB
:10158C00D3E7E31DE9E7000010B582B0044C0094EA
:10159C00003B18BF0123FFF797FF02B010BD00BF3F
:1015AC00140000202DE9F04F85B001908B46904639
:1015BC009A46BDF93860BDF93C300393BDF8403014
:1015CC00029316F1070904D44FEAE90900273D46B6
:1015DC002BE009F10709F7E709FB07F11A46002B85
:1015EC0012DB42F3CF020A441AF8025015F0800FB6
:1015FC000CD1631C1BB2B34211DA9CB213F0070F6F
:10160C00EAD06D00EDB2F1E7DA1DEAE704EB0B016D
:10161C00029B424609B20198FFF7B6FFE9E7013792
:10162C003FB208F101080FFA88F8039B9F4201DAD8
:10163C000023E0E705B0BDE8F08F10B582B004469A
:10164C008DF80710418AC068FEF7C8FE01220DF123
:10165C000701204600F02EF902B010BD38B5044643
:10166C000D4611F0800F0ED1257521212046FFF774
:10167C00E4FF45F080012046FFF7DFFF20212046E4
:10168C00FFF7DBFF38BD7F25EEE738B504460D4686
:10169C00072900D90725657521212046FFF7CDFFC5
:1016AC0045F010012046FFF7C8FF20212046FFF728
:1016BC00C4FF38BD10B50446018AC068FEF78EFE23
:1016CC00218AE068FEF788FE617D2046FFF7DDFF8A
:1016DC00217D2046FFF7C2FF20212046FFF7ADFFFA
:1016EC000C212046FFF7A9FF10BD0000F8B50446F9
:1016FC00827D2AB1C37D0133DBB2C3759A4202D914
:10170C00A67EF60822E00023C375FFF7D3FFF7E7A8
:10171C0046F040012046FFF790FF277E657E47F09C
:10172C0080012046FFF789FF618AE068FEF754FECE
:10173C00542303FB0673EA1B92B2013292B20B499B
:10174C001944204600F0B6F80136F6B2E37EB6EB4B
:10175C00D30FDDD940212046FFF76FFF53232376AB
:10176C00002363762F22A276E376F8BD14000020C6
:10177C0030B583B004464275017500258575C57575
:10178C00FFF798FF2F23009353232A462946204620
:10179C00FFF73AFE2046FFF7A9FF012003B030BD4A
:1017AC0010B582B004464FF4FC720021064800F0DC
:1017BC00FFF82F2300935323002211462046FFF7F6
:1017CC0023FE02B010BD00BF1400002070470000C3
:1017DC00364B994200D070472DE9F04786B01E4633
:1017EC0003604FF4805484804FF4005AA0F806A094
:1017FC004FF4804747814FF40048A0F8088001213E
:10180C000820FEF75FFE01213846FEF769FE102323
:10181C008DF80330ADF8004003258DF80250244CB0
:10182C0069462046FEF778FD4FF018098DF80390B5
:10183C00ADF800A08DF8025069462046FEF76CFD0D
:10184C0004238DF80330ADF800708DF80250694612
:10185C002046FEF761FD8DF80390ADF800808DF801
:10186C00025069462046FEF757FD0023ADF81030B4
:10187C00ADF80C30ADF80A30ADF80830ADF80430E6
:10188C00ADF812304FF48273ADF806304FF400739C
:10189C00ADF80E3001A93046FEF730FE012130467E
:1018AC00FEF753FE06B0BDE8F08700BF00380040DD
:1018BC00000C0140F8B5164602680F4B9A4200D056
:1018CC00F8BD04460F460025AE42F9DD4FF48051B9
:1018DC000A48FEF783FD795D2068FEF744FE8021FF
:1018EC002068FEF742FE0128F9D04FF480510348DE
:1018FC00FEF772FD0135E7E700380040000C0140AF
:10190C000C480D490D4A002302E0D458C45004334E
:10191C00C4188C42F9D30A4A0A4C002301E0136024
:10192C000432A242FBD3FEF781FC00F00FF8FEF765
:10193C0007FC7047000000200C020020741F0008F8
:10194C000C02002034050020FEE7000070B50026D4
:10195C000C4D0D4C641BA410A64209D100F030F8BC
:10196C0000260A4D0A4C641BA410A64205D170BD7A
:10197C0055F8043B98470136EEE755F8043B984779
:10198C000136F2E7681F0008681F0008681F00088E
:10199C00701F00080A44914200F1FF3300D17047D8
:1019AC0010B511F8014B914203F8014FF9D110BD5C
:1019BC0003460244934200D1704703F8011BF9E738
:1019CC00F8B500BFF8BC08BC9E467047F8B500BF20
:0819DC00F8BC08BC9E467047F0
:1019E4004D61696E0000000000000000000000006E
:1019F400000000004D61696E0000000054657874B9
:101A0400000000004769660047616D650000000042
:101A1400537065656400000053544D33320A5253C9
:101A2400323332000000000000000000000000001B
:101A340000000000183C3C3C181800181800000076
:101A44000000666666000000000000000000000060
:101A540036367F3636367F363600000018183C6638
:101A64006030180C06663C1818000070D8DA760C42
:101A740018306E5B1B0E00000000386C6C38606F11
:101A840066663B0000000000181818000000000003
:101A94000000000000000C181830303030301818E6
:101AA4000C0000003018180C0C0C0C0C181830002A
:101AB40000000000361C7F1C3600000000000000FF
:101AC400000018187E181800000000000000000034
:101AD40000000000001C1C0C1800000000000000A6
:101AE4007E00000000000000000000000000000074
:101AF400001C1C000000000006060C0C18183030F6
:101B04006060000000001E333737333B3B331E0058
:101B1400000000000C1C7C0C0C0C0C0C0C000000D5
:101B240000003C6666060C1830607E000000000071
:101B34003C6666061C0666663C0000000000303009
:101B4400363636667F060600000000007E60606060
:101B54007C06060C7800000000001C18307C6666C9
:101B640066663C00000000007E060C0C181830303D
:101B74003000000000003C6666763C6E66663C0001
:101B8400000000003C666666663E0C1838000000E3
:101B9400000000001C1C0000001C1C0000000000D1
:101BA40000001C1C0000001C1C0C18000000060C8B
:101BB40018306030180C0600000000000000007EA1
:101BC400007E00000000000000006030180C060CCD
:101BD40018306000000000003C66660C18180018FD
:101BE4001800000000007EC3C3CFDBDBCFC07F0042
:101BF40000000000183C6666667E666666000000AB
:101C040000007C6666667C6666667C0000000000F8
:101C14003C666660606066663C0000000000786CAC
:101C240066666666666C7800000000007E60606030
:101C34007C6060607E00000000007E6060607C600C
:101C440060606000000000003C666660606E66666E
:101C54003E0000000000666666667E666666660094
:101C6400000000003C181818181818183C00000050
:101C7400000006060606060666663C000000000034
:101C840066666C6C786C6C666600000000006060D0
:101C94006060606060607E00000000006363776BDA
:101CA4006B6B63636300000000006363737B6F67A7
:101CB40063636300000000003C66666666666666F1
:101CC4003C00000000007C6666667C60606060002A
:101CD400000000003C666666666666663C0C0600AC
:101CE40000007C6666667C6C666666000000000028
:101CF4003C666030180C06663C00000000007E184C
:101D0400181818181818180000000000666666668F
:101D1400666666663C000000000066666666666687
:101D2400663C1800000000006363636B6B6B36361F
:101D340036000000000066663418182C66666600DB
:101D440000000000666666663C181818180000005B
:101D540000007E06060C183060607E000000000063
:101D64003C303030303030303030303C0000606057
:101D7400303018180C0C0606000000003C0C0C0C4B
:101D84000C0C0C0C0C0C0C3C183C66000000000005
:101D9400000000000000000000000000000000003F
:101DA400000000FF38180C000000000000000000D4
:101DB4000000000000003C06063E66663E0000008F
:101DC400000060607C66666666667C000000000059
:101DD40000003C66606060663C000000000006068F
:101DE4003E66666666663E000000000000003C66D3
:101DF400667E60603C00000000001E3030307E30A3
:101E0400303030000000000000003E666666666602
:101E14003E06067C000060607C6666666666660058
:101E24000000001818007818181818187E00000010
:101E3400000C0C003C0C0C0C0C0C0C0C0C78000072
:101E4400606066666C786C66660000000000781856
:101E54001818181818187E000000000000007E6B87
:101E64006B6B6B6B63000000000000007C666666B1
:101E7400666666000000000000003C6666666666F2
:101E84003C000000000000007C66666666667C60BC
:101E94006060000000003E66666666663E060606F2
:101EA40000000000666E706060606000000000006A
:101EB40000003E60603C06067C00000000003030FC
:101EC4007E30303030301E000000000000006666B6
:101ED400666666663E000000000000006666666690
:101EE400663C1800000000000000636B6B6B6B36EF
:101EF400360000000000000066663C183C66660080
:101F04000000000000006666666666663C0C18F019
:101F1400000000007E060C1830607E000000000007
:101F24000C1818183060301818180C000000181815
:101F34001818181818181818181800003018181835
:101F44000C060C1818183000000071DB8E0000001D
:101F5400000000000000000000000000000000007D
:041F64000000000079
:081F6800310100089107000897
:041F70000D01000857
:101F74000204060800000000010203040102030435
:101F8400060708090000000000000000000000002F
:101F9400000000000000000000000000000000003D
:101FA40000000000000000000000C0E0F0F8FCFCAD
:101FB400FEFFFCE000000000000000000000000044
:101FC400000000000000000000000000000000000D
:101FD40000000000000000000000000000000000FD
:101FE400000000000000000000F8F8F8F8F8F8F825
:101FF400F8F8F8F8F8F0F0E0E0C080C0FCFFFFFF6C
:10200400FF7F3F7FFFFFFFFFFF0000000000000095
:1020140000000000000000000000000000000000BC
:1020240000000000000000000000000000000000AC
:1020340000000000000000000000000000000F1F6E
:102044003F7FFFFFFFFFFFFFFFFFE7C7C7878F9FAC
:102054009FFFFFFFC1C0E0FCFFFFFFFFFFFCFCFC94
:10206400FCFEFEFEFCFCF8F8F0E0C0C0000000003E
:10207400000000000000000000000000000000005C
:10208400000000000000000000000000000000004C
:10209400000000000080C0E0F1FBFFFFFFFFFF7FB6
:1020A4001F0F0F87E7FFFFFF1F1F3FF9F8F8F8F82E
:1020B400F8F8FDFFFFFFFFFFFFFFFFFF7F3F0F0764
:1020C400010000000000000000000000000000000B
:1020D40000000000000000000000000000000000FC
:1020E40000000000000000F0FEFFFFFFFFFFFFFF05
:1020F400FFFFFFFE7E3F3F0F1FFFFFFFFCF0E0F1FD
:10210400FFFFFFFFFFFCF0010101010101010100DC
:1021140000000000000000000000000000000000BB
:1021240000000000000000000000000000000000AB
:10213400000000000000000000000003030303038C
:102144000303030101010100000000000000030F6C
:102154001F3F7F7FFFFFFFFF7F7F1F030000000003
:10216400000000000000000000000000000000006B
:0C2174000000000000000000000000005F
:040000050800190DC9
:00000001FF
